8=FIX.4.4|9=75|35=A|34=1|49=CLIENT2|52=20260227-08:00:53.878|56=SERVER1|98=0|108=30|141=Y|10=052|8=FIX.4.4|9=129|35=V|34=2|49=CLIENT2|52=20260227-08:00:53.887|56=SERVER1|146=1|55=EURUSD|262=MD_EURUSD|263=1|264=1|265=1|267=3|269=0|269=1|269=2|10=191|8=FIX.4.4|9=129|35=V|34=3|49=CLIENT2|52=20260227-08:00:53.887|56=SERVER1|146=1|55=GBPUSD|262=MD_GBPUSD|263=1|264=1|265=1|267=3|269=0|269=1|269=2|10=154|8=FIX.4.4|9=129|35=V|34=4|49=CLIENT2|52=20260227-08:00:53.888|56=SERVER1|146=1|55=USDJPY|262=MD_USDJPY|263=1|264=1|265=1|267=3|269=0|269=1|269=2|10=208|