8=FIX.4.4|9=69|35=A|34=1|49=SERVER1|52=20260227-06:28:24.897|56=CLIENT1|98=0|108=30|10=016|8=FIX.4.4|9=168|35=W|34=2|49=SERVER1|52=20260227-06:28:24.901|56=CLIENT1|55=EURUSD|262=MD_EURUSD|268=3|269=0|270=1.08483781450451|269=1|270=1.08523781450451|269=2|270=1.08503781450451|10=181|8=FIX.4.4|9=168|35=W|34=3|49=SERVER1|52=20260227-06:28:24.906|56=CLIENT1|55=GBPUSD|262=MD_GBPUSD|268=3|269=0|270=1.26974090666062|269=1|270=1.27014090666062|269=2|270=1.26994090666062|10=164|8=FIX.4.4|9=168|35=W|34=4|49=SERVER1|52=20260227-06:28:24.908|56=CLIENT1|55=USDJPY|262=MD_USDJPY|268=3|269=0|270=150.092600450271|269=1|270=150.093000450271|269=2|270=150.092800450271|10=162|8=FIX.4.4|9=116|35=X|34=5|49=SERVER1|52=20260227-06:28:24.989|56=CLIENT1|268=1|279=0|269=2|55=EURUSD|270=1.08501553753896|271=66023|10=221|8=FIX.4.4|9=116|35=X|34=6|49=SERVER1|52=20260227-06:28:24.992|56=CLIENT1|268=1|279=0|269=2|55=USDJPY|270=150.094541344303|271=52897|10=217|8=FIX.4.4|9=116|35=X|34=7|49=SERVER1|52=20260227-06:28:24.994|56=CLIENT1|268=1|279=0|269=2|55=GBPUSD|270=1.26994893426178|271=37112|10=210|8=FIX.4.4|9=116|35=X|34=8|49=SERVER1|52=20260227-06:28:25.100|56=CLIENT1|268=1|279=0|269=2|55=EURUSD|270=1.08500972220732|271=91017|10=183|8=FIX.4.4|9=116|35=X|34=9|49=SERVER1|52=20260227-06:28:25.101|56=CLIENT1|268=1|279=0|269=2|55=USDJPY|270=150.088431251977|271=85988|10=225|8=FIX.4.4|9=116|35=X|34=10|49=SERVER1|52=20260227-06:28:25.102|56=CLIENT1|268=1|279=0|269=2|55=GBPUSD|270=1.2698878871202|271=49710|10=183|8=FIX.4.4|9=117|35=X|34=11|49=SERVER1|52=20260227-06:28:25.211|56=CLIENT1|268=1|279=0|269=2|55=EURUSD|270=1.08493928800932|271=25363|10=248|8=FIX.4.4|9=117|35=X|34=12|49=SERVER1|52=20260227-06:28:25.213|56=CLIENT1|268=1|279=0|269=2|55=USDJPY|270=150.082984537876|271=81969|10=023|8=FIX.4.4|9=117|35=X|34=13|49=SERVER1|52=20260227-06:28:25.215|56=CLIENT1|268=1|279=0|269=2|55=GBPUSD|270=1.26988249013225|271=37999|10=249|8=FIX.4.4|9=117|35=X|34=14|49=SERVER1|52=20260227-06:28:25.332|56=CLIENT1|268=1|279=0|269=2|55=EURUSD|270=1.08502396393822|271=68010|10=246|8=FIX.4.4|9=117|35=X|34=15|49=SERVER1|52=20260227-06:28:25.334|56=CLIENT1|268=1|279=0|269=2|55=USDJPY|270=150.085645811176|271=26633|10=002|8=FIX.4.4|9=117|35=X|34=16|49=SERVER1|52=20260227-06:28:25.337|56=CLIENT1|268=1|279=0|269=2|55=GBPUSD|270=1.26996346632587|271=75399|10=012|8=FIX.4.4|9=117|35=X|34=17|49=SERVER1|52=20260227-06:28:25.447|56=CLIENT1|268=1|279=0|269=2|55=EURUSD|270=1.08499489156486|271=49498|10=040|8=FIX.4.4|9=116|35=X|34=18|49=SERVER1|52=20260227-06:28:25.448|56=CLIENT1|268=1|279=0|269=2|55=USDJPY|270=150.07786819558|271=73659|10=240|8=FIX.4.4|9=117|35=X|34=19|49=SERVER1|52=20260227-06:28:25.449|56=CLIENT1|268=1|279=0|269=2|55=GBPUSD|270=1.26989593202952|271=46785|10=011|8=FIX.4.4|9=116|35=X|34=20|49=SERVER1|52=20260227-06:28:25.559|56=CLIENT1|268=1|279=0|269=2|55=EURUSD|270=1.0850138707797|271=50460|10=207|8=FIX.4.4|9=117|35=X|34=21|49=SERVER1|52=20260227-06:28:25.561|56=CLIENT1|268=1|279=0|269=2|55=USDJPY|270=150.068709278088|271=64256|10=015|8=FIX.4.4|9=116|35=X|34=22|49=SERVER1|52=20260227-06:28:25.563|56=CLIENT1|268=1|279=0|269=2|55=GBPUSD|270=1.2699381751854|271=25080|10=191|8=FIX.4.4|9=117|35=X|34=23|49=SERVER1|52=20260227-06:28:25.670|56=CLIENT1|268=1|279=0|269=2|55=EURUSD|270=1.08508011363717|271=20567|10=246|8=FIX.4.4|9=117|35=X|34=24|49=SERVER1|52=20260227-06:28:25.672|56=CLIENT1|268=1|279=0|269=2|55=USDJPY|270=150.064642795507|271=69020|10=007|8=FIX.4.4|9=117|35=X|34=25|49=SERVER1|52=20260227-06:28:25.674|56=CLIENT1|268=1|279=0|269=2|55=GBPUSD|270=1.26992221317572|271=48175|10=246|8=FIX.4.4|9=117|35=X|34=26|49=SERVER1|52=20260227-06:28:25.783|56=CLIENT1|268=1|279=0|269=2|55=EURUSD|270=1.08508168529416|271=20187|10=009|8=FIX.4.4|9=117|35=X|34=27|49=SERVER1|52=20260227-06:28:25.786|56=CLIENT1|268=1|279=0|269=2|55=USDJPY|270=150.074513489867|271=33623|10=023|8=FIX.4.4|9=117|35=X|34=28|49=SERVER1|52=20260227-06:28:25.788|56=CLIENT1|268=1|279=0|269=2|55=GBPUSD|270=1.26998241609975|271=78664|10=024|8=FIX.4.4|9=115|35=X|34=29|49=SERVER1|52=20260227-06:28:25.895|56=CLIENT1|268=1|279=0|269=2|55=EURUSD|270=1.085034869425|271=93597|10=180|8=FIX.4.4|9=117|35=X|34=30|49=SERVER1|52=20260227-06:28:25.898|56=CLIENT1|268=1|279=0|269=2|55=USDJPY|270=150.079120107231|271=19066|10=253|8=FIX.4.4|9=117|35=X|34=31|49=SERVER1|52=20260227-06:28:25.900|56=CLIENT1|268=1|279=0|269=2|55=GBPUSD|270=1.26995128168352|271=62067|10=240|8=FIX.4.4|9=117|35=X|34=32|49=SERVER1|52=20260227-06:28:26.006|56=CLIENT1|268=1|279=0|269=2|55=EURUSD|270=1.08498232613957|271=97178|10=013|8=FIX.4.4|9=117|35=X|34=33|49=SERVER1|52=20260227-06:28:26.008|56=CLIENT1|268=1|279=0|269=2|55=USDJPY|270=150.073395562005|271=96678|10=010|8=FIX.4.4|9=117|35=X|34=34|49=SERVER1|52=20260227-06:28:26.011|56=CLIENT1|268=1|279=0|269=2|55=GBPUSD|270=1.26996064282761|271=30389|10=240|8=FIX.4.4|9=117|35=X|34=35|49=SERVER1|52=20260227-06:28:26.117|56=CLIENT1|268=1|279=0|269=2|55=EURUSD|270=1.08492030723992|271=30843|10=252|8=FIX.4.4|9=117|35=X|34=36|49=SERVER1|52=20260227-06:28:26.118|56=CLIENT1|268=1|279=0|269=2|55=USDJPY|270=150.073173516861|271=47196|10=009|8=FIX.4.4|9=117|35=X|34=37|49=SERVER1|52=20260227-06:28:26.119|56=CLIENT1|268=1|279=0|269=2|55=GBPUSD|270=1.26989467328336|271=71122|10=250|8=FIX.4.4|9=116|35=X|34=38|49=SERVER1|52=20260227-06:28:26.228|56=CLIENT1|268=1|279=0|269=2|55=EURUSD|270=1.0848994102832|271=67282|10=216|8=FIX.4.4|9=117|35=X|34=39|49=SERVER1|52=20260227-06:28:26.229|56=CLIENT1|268=1|279=0|269=2|55=USDJPY|270=150.066205000029|271=98919|10=006|8=FIX.4.4|9=117|35=X|34=40|49=SERVER1|52=20260227-06:28:26.230|56=CLIENT1|268=1|279=0|269=2|55=GBPUSD|270=1.26980222105603|271=89558|10=230|8=FIX.4.4|9=117|35=X|34=41|49=SERVER1|52=20260227-06:28:26.339|56=CLIENT1|268=1|279=0|269=2|55=EURUSD|270=1.08499125460428|271=92196|10=012|8=FIX.4.4|9=116|35=X|34=42|49=SERVER1|52=20260227-06:28:26.341|56=CLIENT1|268=1|279=0|269=2|55=USDJPY|270=150.07212867747|271=62456|10=210|8=FIX.4.4|9=117|35=X|34=43|49=SERVER1|52=20260227-06:28:26.342|56=CLIENT1|268=1|279=0|269=2|55=GBPUSD|270=1.26985559187313|271=33568|10=253|8=FIX.4.4|9=117|35=X|34=44|49=SERVER1|52=20260227-06:28:26.450|56=CLIENT1|268=1|279=0|269=2|55=EURUSD|270=1.08495832597321|271=21616|10=002|8=FIX.4.4|9=117|35=X|34=45|49=SERVER1|52=20260227-06:28:26.451|56=CLIENT1|268=1|279=0|269=2|55=USDJPY|270=150.067967893153|271=22289|10=021|8=FIX.4.4|9=117|35=X|34=46|49=SERVER1|52=20260227-06:28:26.452|56=CLIENT1|268=1|279=0|269=2|55=GBPUSD|270=1.26989983737389|271=30769|10=021|8=FIX.4.4|9=117|35=X|34=47|49=SERVER1|52=20260227-06:28:26.560|56=CLIENT1|268=1|279=0|269=2|55=EURUSD|270=1.08495872085031|271=68838|10=018|8=FIX.4.4|9=117|35=X|34=48|49=SERVER1|52=20260227-06:28:26.561|56=CLIENT1|268=1|279=0|269=2|55=USDJPY|270=150.067851371889|271=11128|10=015|8=FIX.4.4|9=117|35=X|34=49|49=SERVER1|52=20260227-06:28:26.562|56=CLIENT1|268=1|279=0|269=2|55=GBPUSD|270=1.26985715468934|271=74354|10=010|8=FIX.4.4|9=117|35=X|34=50|49=SERVER1|52=20260227-06:28:26.671|56=CLIENT1|268=1|279=0|269=2|55=EURUSD|270=1.08503946496288|271=44628|10=018|8=FIX.4.4|9=117|35=X|34=51|49=SERVER1|52=20260227-06:28:26.672|56=CLIENT1|268=1|279=0|269=2|55=USDJPY|270=150.064958345725|271=40075|10=010|8=FIX.4.4|9=117|35=X|34=52|49=SERVER1|52=20260227-06:28:26.673|56=CLIENT1|268=1|279=0|269=2|55=GBPUSD|270=1.26989690385584|271=15890|10=012|8=FIX.4.4|9=117|35=X|34=53|49=SERVER1|52=20260227-06:28:26.781|56=CLIENT1|268=1|279=0|269=2|55=EURUSD|270=1.08504223680015|271=12748|10=249|8=FIX.4.4|9=117|35=X|34=54|49=SERVER1|52=20260227-06:28:26.782|56=CLIENT1|268=1|279=0|269=2|55=USDJPY|270=150.069839830892|271=72082|10=025|8=FIX.4.4|9=117|35=X|34=55|49=SERVER1|52=20260227-06:28:26.783|56=CLIENT1|268=1|279=0|269=2|55=GBPUSD|270=1.26984769247709|271=53193|10=013|8=FIX.4.4|9=117|35=X|34=56|49=SERVER1|52=20260227-06:28:26.892|56=CLIENT1|268=1|279=0|269=2|55=EURUSD|270=1.08512318124776|271=33803|10=005|8=FIX.4.4|9=117|35=X|34=57|49=SERVER1|52=20260227-06:28:26.893|56=CLIENT1|268=1|279=0|269=2|55=USDJPY|270=150.078524842618|271=65590|10=027|8=FIX.4.4|9=117|35=X|34=58|49=SERVER1|52=20260227-06:28:26.894|56=CLIENT1|268=1|279=0|269=2|55=GBPUSD|270=1.26991958093794|271=64983|10=029|8=FIX.4.4|9=117|35=X|34=59|49=SERVER1|52=20260227-06:28:27.004|56=CLIENT1|268=1|279=0|269=2|55=EURUSD|270=1.08512086162492|271=61905|10=253|8=FIX.4.4|9=116|35=X|34=60|49=SERVER1|52=20260227-06:28:27.005|56=CLIENT1|268=1|279=0|269=2|55=USDJPY|270=150.07218329201|271=32051|10=180|8=FIX.4.4|9=117|35=X|34=61|49=SERVER1|52=20260227-06:28:27.007|56=CLIENT1|268=1|279=0|269=2|55=GBPUSD|270=1.26988618198608|271=89786|10=017|8=FIX.4.4|9=116|35=X|34=62|49=SERVER1|52=20260227-06:28:27.116|56=CLIENT1|268=1|279=0|269=2|55=EURUSD|270=1.0850265964552|271=63645|10=208|8=FIX.4.4|9=117|35=X|34=63|49=SERVER1|52=20260227-06:28:27.117|56=CLIENT1|268=1|279=0|269=2|55=USDJPY|270=150.068386411967|271=25113|10=005|8=FIX.4.4|9=117|35=X|34=64|49=SERVER1|52=20260227-06:28:27.119|56=CLIENT1|268=1|279=0|269=2|55=GBPUSD|270=1.26998191811659|271=30916|10=000|8=FIX.4.4|9=117|35=X|34=65|49=SERVER1|52=20260227-06:28:27.226|56=CLIENT1|268=1|279=0|269=2|55=EURUSD|270=1.08507597729648|271=55042|10=018|8=FIX.4.4|9=117|35=X|34=66|49=SERVER1|52=20260227-06:28:27.228|56=CLIENT1|268=1|279=0|269=2|55=USDJPY|270=150.067808179552|271=38641|10=020|8=FIX.4.4|9=117|35=X|34=67|49=SERVER1|52=20260227-06:28:27.230|56=CLIENT1|268=1|279=0|269=2|55=GBPUSD|270=1.27007241252338|271=71378|10=231|8=FIX.4.4|9=116|35=X|34=68|49=SERVER1|52=20260227-06:28:27.337|56=CLIENT1|268=1|279=0|269=2|55=EURUSD|270=1.0849844635235|271=88463|10=228|8=FIX.4.4|9=116|35=X|34=69|49=SERVER1|52=20260227-06:28:27.339|56=CLIENT1|268=1|279=0|269=2|55=USDJPY|270=150.07650023255|271=56949|10=221|8=FIX.4.4|9=117|35=X|34=70|49=SERVER1|52=20260227-06:28:27.342|56=CLIENT1|268=1|279=0|269=2|55=GBPUSD|270=1.26999175852911|271=36072|10=249|8=FIX.4.4|9=117|35=X|34=71|49=SERVER1|52=20260227-06:28:27.449|56=CLIENT1|268=1|279=0|269=2|55=EURUSD|270=1.08489756841582|271=83580|10=028|8=FIX.4.4|9=117|35=X|34=72|49=SERVER1|52=20260227-06:28:27.451|56=CLIENT1|268=1|279=0|269=2|55=USDJPY|270=150.080949024354|271=73425|10=004|8=FIX.4.4|9=117|35=X|34=73|49=SERVER1|52=20260227-06:28:27.453|56=CLIENT1|268=1|279=0|269=2|55=GBPUSD|270=1.26993078000934|271=69365|10=252|8=FIX.4.4|9=117|35=X|34=74|49=SERVER1|52=20260227-06:28:27.561|56=CLIENT1|268=1|279=0|269=2|55=EURUSD|270=1.08490128740384|271=94245|10=009|8=FIX.4.4|9=117|35=X|34=75|49=SERVER1|52=20260227-06:28:27.563|56=CLIENT1|268=1|279=0|269=2|55=USDJPY|270=150.073793368442|271=68409|10=025|8=FIX.4.4|9=116|35=X|34=76|49=SERVER1|52=20260227-06:28:27.565|56=CLIENT1|268=1|279=0|269=2|55=GBPUSD|270=1.2699908461249|271=52546|10=212|8=FIX.4.4|9=117|35=X|34=77|49=SERVER1|52=20260227-06:28:27.673|56=CLIENT1|268=1|279=0|269=2|55=EURUSD|270=1.08488867398595|271=48915|10=049|8=FIX.4.4|9=117|35=X|34=78|49=SERVER1|52=20260227-06:28:27.673|56=CLIENT1|268=1|279=0|269=2|55=USDJPY|270=150.080299644421|271=55533|10=017|8=FIX.4.4|9=117|35=X|34=79|49=SERVER1|52=20260227-06:28:27.674|56=CLIENT1|268=1|279=0|269=2|55=GBPUSD|270=1.27007223494352|271=21985|10=249|8=FIX.4.4|9=117|35=X|34=80|49=SERVER1|52=20260227-06:28:27.783|56=CLIENT1|268=1|279=0|269=2|55=EURUSD|270=1.08482335170784|271=74252|10=010|8=FIX.4.4|9=117|35=X|34=81|49=SERVER1|52=20260227-06:28:27.785|56=CLIENT1|268=1|279=0|269=2|55=USDJPY|270=150.082643742756|271=84825|10=026|8=FIX.4.4|9=117|35=X|34=82|49=SERVER1|52=20260227-06:28:27.787|56=CLIENT1|268=1|279=0|269=2|55=GBPUSD|270=1.27013290782261|271=45728|10=249|8=FIX.4.4|9=117|35=X|34=83|49=SERVER1|52=20260227-06:28:27.895|56=CLIENT1|268=1|279=0|269=2|55=EURUSD|270=1.08477888451929|271=45933|10=041|8=FIX.4.4|9=117|35=X|34=84|49=SERVER1|52=20260227-06:28:27.897|56=CLIENT1|268=1|279=0|269=2|55=USDJPY|270=150.083181259295|271=91805|10=028|8=FIX.4.4|9=116|35=X|34=85|49=SERVER1|52=20260227-06:28:27.898|56=CLIENT1|268=1|279=0|269=2|55=GBPUSD|270=1.2701563636396|271=69118|10=212|8=FIX.4.4|9=117|35=X|34=86|49=SERVER1|52=20260227-06:28:28.006|56=CLIENT1|268=1|279=0|269=2|55=EURUSD|270=1.08480447919088|271=56352|10=016|8=FIX.4.4|9=117|35=X|34=87|49=SERVER1|52=20260227-06:28:28.007|56=CLIENT1|268=1|279=0|269=2|55=USDJPY|270=150.089673893423|271=48849|10=034|8=FIX.4.4|9=117|35=X|34=88|49=SERVER1|52=20260227-06:28:28.008|56=CLIENT1|268=1|279=0|269=2|55=GBPUSD|270=1.27005946106418|271=83451|10=240|8=FIX.4.4|9=117|35=X|34=89|49=SERVER1|52=20260227-06:28:28.116|56=CLIENT1|268=1|279=0|269=2|55=EURUSD|270=1.08476315683963|271=25045|10=015|8=FIX.4.4|9=117|35=X|34=90|49=SERVER1|52=20260227-06:28:28.118|56=CLIENT1|268=1|279=0|269=2|55=USDJPY|270=150.081798220342|271=54351|10=000|8=FIX.4.4|9=117|35=X|34=91|49=SERVER1|52=20260227-06:28:28.120|56=CLIENT1|268=1|279=0|269=2|55=GBPUSD|270=1.26999852601804|271=27830|10=244|8=FIX.4.4|9=117|35=X|34=92|49=SERVER1|52=20260227-06:28:28.227|56=CLIENT1|268=1|279=0|269=2|55=EURUSD|270=1.08476109436823|271=28377|10=015|8=FIX.4.4|9=117|35=X|34=93|49=SERVER1|52=20260227-06:28:28.229|56=CLIENT1|268=1|279=0|269=2|55=USDJPY|270=150.084123665865|271=95647|10=027|8=FIX.4.4|9=117|35=X|34=94|49=SERVER1|52=20260227-06:28:28.231|56=CLIENT1|268=1|279=0|269=2|55=GBPUSD|270=1.27008259242551|271=45322|10=229|8=FIX.4.4|9=117|35=X|34=95|49=SERVER1|52=20260227-06:28:28.337|56=CLIENT1|268=1|279=0|269=2|55=EURUSD|270=1.08485040981926|271=76407|10=020|8=FIX.4.4|9=117|35=X|34=96|49=SERVER1|52=20260227-06:28:28.340|56=CLIENT1|268=1|279=0|269=2|55=USDJPY|270=150.079506054295|271=97469|10=026|8=FIX.4.4|9=117|35=X|34=97|49=SERVER1|52=20260227-06:28:28.342|56=CLIENT1|268=1|279=0|269=2|55=GBPUSD|270=1.27009538540444|271=59308|10=247|8=FIX.4.4|9=117|35=X|34=98|49=SERVER1|52=20260227-06:28:28.449|56=CLIENT1|268=1|279=0|269=2|55=EURUSD|270=1.08493895721632|271=21810|10=018|8=FIX.4.4|9=117|35=X|34=99|49=SERVER1|52=20260227-06:28:28.452|56=CLIENT1|268=1|279=0|269=2|55=USDJPY|270=150.080841602203|271=98475|10=013|8=FIX.4.4|9=118|35=X|34=100|49=SERVER1|52=20260227-06:28:28.455|56=CLIENT1|268=1|279=0|269=2|55=GBPUSD|270=1.27005567639453|271=37944|10=039|8=FIX.4.4|9=118|35=X|34=101|49=SERVER1|52=20260227-06:28:28.560|56=CLIENT1|268=1|279=0|269=2|55=EURUSD|270=1.08486308700251|271=69971|10=051|8=FIX.4.4|9=118|35=X|34=102|49=SERVER1|52=20260227-06:28:28.561|56=CLIENT1|268=1|279=0|269=2|55=USDJPY|270=150.081624131485|271=31845|10=045|8=FIX.4.4|9=118|35=X|34=103|49=SERVER1|52=20260227-06:28:28.562|56=CLIENT1|268=1|279=0|269=2|55=GBPUSD|270=1.27012024822399|271=69988|10=043|8=FIX.4.4|9=118|35=X|34=104|49=SERVER1|52=20260227-06:28:28.672|56=CLIENT1|268=1|279=0|269=2|55=EURUSD|270=1.08479871349372|271=38141|10=063|8=FIX.4.4|9=118|35=X|34=105|49=SERVER1|52=20260227-06:28:28.674|56=CLIENT1|268=1|279=0|269=2|55=USDJPY|270=150.089258639779|271=99918|10=098|8=FIX.4.4|9=118|35=X|34=106|49=SERVER1|52=20260227-06:28:28.676|56=CLIENT1|268=1|279=0|269=2|55=GBPUSD|270=1.27005447243628|271=76537|10=043|8=FIX.4.4|9=117|35=X|34=107|49=SERVER1|52=20260227-06:28:28.783|56=CLIENT1|268=1|279=0|269=2|55=EURUSD|270=1.0847112221418|271=60508|10=247|8=FIX.4.4|9=117|35=X|34=108|49=SERVER1|52=20260227-06:28:28.785|56=CLIENT1|268=1|279=0|269=2|55=USDJPY|270=150.09689596991|271=18095|10=040|8=FIX.4.4|9=118|35=X|34=109|49=SERVER1|52=20260227-06:28:28.786|56=CLIENT1|268=1|279=0|269=2|55=GBPUSD|270=1.26995613532534|271=27139|10=051|8=FIX.4.4|9=118|35=X|34=110|49=SERVER1|52=20260227-06:28:28.894|56=CLIENT1|268=1|279=0|269=2|55=EURUSD|270=1.08468500545144|271=67087|10=059|8=FIX.4.4|9=118|35=X|34=111|49=SERVER1|52=20260227-06:28:28.895|56=CLIENT1|268=1|279=0|269=2|55=USDJPY|270=150.097491229756|271=98348|10=084|8=FIX.4.4|9=118|35=X|34=112|49=SERVER1|52=20260227-06:28:28.897|56=CLIENT1|268=1|279=0|269=2|55=GBPUSD|270=1.26988741631633|271=40222|10=040|8=FIX.4.4|9=118|35=X|34=113|49=SERVER1|52=20260227-06:28:29.005|56=CLIENT1|268=1|279=0|269=2|55=EURUSD|270=1.08463557012129|271=68029|10=043|8=FIX.4.4|9=118|35=X|34=114|49=SERVER1|52=20260227-06:28:29.006|56=CLIENT1|268=1|279=0|269=2|55=USDJPY|270=150.095016674007|271=25584|10=048|8=FIX.4.4|9=118|35=X|34=115|49=SERVER1|52=20260227-06:28:29.007|56=CLIENT1|268=1|279=0|269=2|55=GBPUSD|270=1.26990661252239|271=48543|10=036|8=FIX.4.4|9=118|35=X|34=116|49=SERVER1|52=20260227-06:28:29.115|56=CLIENT1|268=1|279=0|269=2|55=EURUSD|270=1.08463197453358|271=88982|10=071|8=FIX.4.4|9=117|35=X|34=117|49=SERVER1|52=20260227-06:28:29.116|56=CLIENT1|268=1|279=0|269=2|55=USDJPY|270=150.09915986854|271=63056|10=019|8=FIX.4.4|9=118|35=X|34=118|49=SERVER1|52=20260227-06:28:29.117|56=CLIENT1|268=1|279=0|269=2|55=GBPUSD|270=1.26985185005834|271=53020|10=029|8=FIX.4.4|9=118|35=X|34=119|49=SERVER1|52=20260227-06:28:29.226|56=CLIENT1|268=1|279=0|269=2|55=EURUSD|270=1.08453561688617|271=62469|10=071|8=FIX.4.4|9=118|35=X|34=120|49=SERVER1|52=20260227-06:28:29.227|56=CLIENT1|268=1|279=0|269=2|55=USDJPY|270=150.094195990896|271=68925|10=080|8=FIX.4.4|9=118|35=X|34=121|49=SERVER1|52=20260227-06:28:29.229|56=CLIENT1|268=1|279=0|269=2|55=GBPUSD|270=1.26976746344681|271=65538|10=053|8=FIX.4.4|9=118|35=X|34=122|49=SERVER1|52=20260227-06:28:29.337|56=CLIENT1|268=1|279=0|269=2|55=EURUSD|270=1.08448867306709|271=99683|10=078|8=FIX.4.4|9=118|35=X|34=123|49=SERVER1|52=20260227-06:28:29.338|56=CLIENT1|268=1|279=0|269=2|55=USDJPY|270=150.094837941338|271=98440|10=071|8=FIX.4.4|9=118|35=X|34=124|49=SERVER1|52=20260227-06:28:29.339|56=CLIENT1|268=1|279=0|269=2|55=GBPUSD|270=1.26981351320448|271=79561|10=042|8=FIX.4.4|9=118|35=X|34=125|49=SERVER1|52=20260227-06:28:29.447|56=CLIENT1|268=1|279=0|269=2|55=EURUSD|270=1.08442942500628|271=62566|10=057|8=FIX.4.4|9=117|35=X|34=126|49=SERVER1|52=20260227-06:28:29.449|56=CLIENT1|268=1|279=0|269=2|55=USDJPY|270=150.08699332161|271=43733|10=012|8=FIX.4.4|9=118|35=X|34=127|49=SERVER1|52=20260227-06:28:29.449|56=CLIENT1|268=1|279=0|269=2|55=GBPUSD|270=1.26988313098207|271=89169|10=062|8=FIX.4.4|9=118|35=X|34=128|49=SERVER1|52=20260227-06:28:29.561|56=CLIENT1|268=1|279=0|269=2|55=EURUSD|270=1.08449297711861|271=39406|10=067|8=FIX.4.4|9=118|35=X|34=129|49=SERVER1|52=20260227-06:28:29.563|56=CLIENT1|268=1|279=0|269=2|55=USDJPY|270=150.090177534006|271=63492|10=059|8=FIX.4.4|9=118|35=X|34=130|49=SERVER1|52=20260227-06:28:29.565|56=CLIENT1|268=1|279=0|269=2|55=GBPUSD|270=1.26978763350099|271=14408|10=047|8=FIX.4.4|9=118|35=X|34=131|49=SERVER1|52=20260227-06:28:29.673|56=CLIENT1|268=1|279=0|269=2|55=EURUSD|270=1.08454697025172|271=38145|10=057|8=FIX.4.4|9=118|35=X|34=132|49=SERVER1|52=20260227-06:28:29.675|56=CLIENT1|268=1|279=0|269=2|55=USDJPY|270=150.083407228887|271=53937|10=075|8=FIX.4.4|9=118|35=X|34=133|49=SERVER1|52=20260227-06:28:29.676|56=CLIENT1|268=1|279=0|269=2|55=GBPUSD|270=1.26977345881514|271=48060|10=050|8=FIX.4.4|9=118|35=X|34=134|49=SERVER1|52=20260227-06:28:29.785|56=CLIENT1|268=1|279=0|269=2|55=EURUSD|270=1.08446581611887|271=79881|10=083|8=FIX.4.4|9=118|35=X|34=135|49=SERVER1|52=20260227-06:28:29.786|56=CLIENT1|268=1|279=0|269=2|55=USDJPY|270=150.092902316617|271=52383|10=064|8=FIX.4.4|9=118|35=X|34=136|49=SERVER1|52=20260227-06:28:29.787|56=CLIENT1|268=1|279=0|269=2|55=GBPUSD|270=1.26981264867731|271=67105|10=057|8=FIX.4.4|9=118|35=X|34=137|49=SERVER1|52=20260227-06:28:29.896|56=CLIENT1|268=1|279=0|269=2|55=EURUSD|270=1.08438025217062|271=67468|10=068|8=FIX.4.4|9=118|35=X|34=138|49=SERVER1|52=20260227-06:28:29.899|56=CLIENT1|268=1|279=0|269=2|55=USDJPY|270=150.083574393337|271=57603|10=081|8=FIX.4.4|9=118|35=X|34=139|49=SERVER1|52=20260227-06:28:29.901|56=CLIENT1|268=1|279=0|269=2|55=GBPUSD|270=1.26977188220755|271=38764|10=056|8=FIX.4.4|9=118|35=X|34=140|49=SERVER1|52=20260227-06:28:30.007|56=CLIENT1|268=1|279=0|269=2|55=EURUSD|270=1.08438642502653|271=66801|10=036|8=FIX.4.4|9=118|35=X|34=141|49=SERVER1|52=20260227-06:28:30.009|56=CLIENT1|268=1|279=0|269=2|55=USDJPY|270=150.093464501788|271=46686|10=059|8=FIX.4.4|9=118|35=X|34=142|49=SERVER1|52=20260227-06:28:30.010|56=CLIENT1|268=1|279=0|269=2|55=GBPUSD|270=1.26983587845133|271=75201|10=023|8=FIX.4.4|9=118|35=X|34=143|49=SERVER1|52=20260227-06:28:30.118|56=CLIENT1|268=1|279=0|269=2|55=EURUSD|270=1.08433553997619|271=97179|10=070|8=FIX.4.4|9=118|35=X|34=144|49=SERVER1|52=20260227-06:28:30.119|56=CLIENT1|268=1|279=0|269=2|55=USDJPY|270=150.094091179935|271=77375|10=065|8=FIX.4.4|9=118|35=X|34=145|49=SERVER1|52=20260227-06:28:30.120|56=CLIENT1|268=1|279=0|269=2|55=GBPUSD|270=1.26987247174843|271=19506|10=034|8=FIX.4.4|9=118|35=X|34=146|49=SERVER1|52=20260227-06:28:30.230|56=CLIENT1|268=1|279=0|269=2|55=EURUSD|270=1.08435773170795|271=17095|10=051|8=FIX.4.4|9=118|35=X|34=147|49=SERVER1|52=20260227-06:28:30.232|56=CLIENT1|268=1|279=0|269=2|55=USDJPY|270=150.093269905686|271=48111|10=056|8=FIX.4.4|9=118|35=X|34=148|49=SERVER1|52=20260227-06:28:30.235|56=CLIENT1|268=1|279=0|269=2|55=GBPUSD|270=1.26979063640589|271=16109|10=042|8=FIX.4.4|9=118|35=X|34=149|49=SERVER1|52=20260227-06:28:30.347|56=CLIENT1|268=1|279=0|269=2|55=EURUSD|270=1.08427155971854|271=23829|10=065|8=FIX.4.4|9=118|35=X|34=150|49=SERVER1|52=20260227-06:28:30.349|56=CLIENT1|268=1|279=0|269=2|55=USDJPY|270=150.088890011816|271=33584|10=054|8=FIX.4.4|9=118|35=X|34=151|49=SERVER1|52=20260227-06:28:30.351|56=CLIENT1|268=1|279=0|269=2|55=GBPUSD|270=1.26978731143838|271=57443|10=037|8=FIX.4.4|9=118|35=X|34=152|49=SERVER1|52=20260227-06:28:30.464|56=CLIENT1|268=1|279=0|269=2|55=EURUSD|270=1.08426304459233|271=18499|10=053|8=FIX.4.4|9=118|35=X|34=153|49=SERVER1|52=20260227-06:28:30.466|56=CLIENT1|268=1|279=0|269=2|55=USDJPY|270=150.081297645454|271=56625|10=063|8=FIX.4.4|9=118|35=X|34=154|49=SERVER1|52=20260227-06:28:30.467|56=CLIENT1|268=1|279=0|269=2|55=GBPUSD|270=1.26987603596249|271=78066|10=058|8=FIX.4.4|9=118|35=X|34=155|49=SERVER1|52=20260227-06:28:30.579|56=CLIENT1|268=1|279=0|269=2|55=EURUSD|270=1.08421667986805|271=96193|10=077|8=FIX.4.4|9=118|35=X|34=156|49=SERVER1|52=20260227-06:28:30.581|56=CLIENT1|268=1|279=0|269=2|55=USDJPY|270=150.076111786199|271=47419|10=066|8=FIX.4.4|9=118|35=X|34=157|49=SERVER1|52=20260227-06:28:30.586|56=CLIENT1|268=1|279=0|269=2|55=GBPUSD|270=1.26987097964285|271=36016|10=058|8=FIX.4.4|9=117|35=X|34=158|49=SERVER1|52=20260227-06:28:30.697|56=CLIENT1|268=1|279=0|269=2|55=EURUSD|270=1.0842510415012|271=65237|10=246|8=FIX.4.4|9=118|35=X|34=159|49=SERVER1|52=20260227-06:28:30.698|56=CLIENT1|268=1|279=0|269=2|55=USDJPY|270=150.075924169895|271=16119|10=080|8=FIX.4.4|9=118|35=X|34=160|49=SERVER1|52=20260227-06:28:30.700|56=CLIENT1|268=1|279=0|269=2|55=GBPUSD|270=1.26982193767389|271=94170|10=043|8=FIX.4.4|9=118|35=X|34=161|49=SERVER1|52=20260227-06:28:30.812|56=CLIENT1|268=1|279=0|269=2|55=EURUSD|270=1.08433469682514|271=70105|10=042|8=FIX.4.4|9=118|35=X|34=162|49=SERVER1|52=20260227-06:28:30.814|56=CLIENT1|268=1|279=0|269=2|55=USDJPY|270=150.082812013012|271=81109|10=028|8=FIX.4.4|9=118|35=X|34=163|49=SERVER1|52=20260227-06:28:30.817|56=CLIENT1|268=1|279=0|269=2|55=GBPUSD|270=1.26976718315547|271=80247|10=046|8=FIX.4.4|9=118|35=X|34=164|49=SERVER1|52=20260227-06:28:30.931|56=CLIENT1|268=1|279=0|269=2|55=EURUSD|270=1.08436976323824|271=55910|10=056|8=FIX.4.4|9=117|35=X|34=165|49=SERVER1|52=20260227-06:28:30.935|56=CLIENT1|268=1|279=0|269=2|55=USDJPY|270=150.07742465152|271=64195|10=007|8=FIX.4.4|9=118|35=X|34=166|49=SERVER1|52=20260227-06:28:30.937|56=CLIENT1|268=1|279=0|269=2|55=GBPUSD|270=1.26974453739317|271=98601|10=054|8=FIX.4.4|9=118|35=X|34=167|49=SERVER1|52=20260227-06:28:31.046|56=CLIENT1|268=1|279=0|269=2|55=EURUSD|270=1.08440080588788|271=10103|10=045|8=FIX.4.4|9=118|35=X|34=168|49=SERVER1|52=20260227-06:28:31.049|56=CLIENT1|268=1|279=0|269=2|55=USDJPY|270=150.076673634664|271=52211|10=057|8=FIX.4.4|9=118|35=X|34=169|49=SERVER1|52=20260227-06:28:31.053|56=CLIENT1|268=1|279=0|269=2|55=GBPUSD|270=1.26964513763422|271=51482|10=033|8=FIX.4.4|9=118|35=X|34=170|49=SERVER1|52=20260227-06:28:31.166|56=CLIENT1|268=1|279=0|269=2|55=EURUSD|270=1.08445483783306|271=97385|10=064|8=FIX.4.4|9=118|35=X|34=171|49=SERVER1|52=20260227-06:28:31.168|56=CLIENT1|268=1|279=0|269=2|55=USDJPY|270=150.072766904667|271=80627|10=067|8=FIX.4.4|9=118|35=X|34=172|49=SERVER1|52=20260227-06:28:31.170|56=CLIENT1|268=1|279=0|269=2|55=GBPUSD|270=1.26963940906512|271=32282|10=026|8=FIX.4.4|9=118|35=X|34=173|49=SERVER1|52=20260227-06:28:31.279|56=CLIENT1|268=1|279=0|269=2|55=EURUSD|270=1.08451612803838|271=25828|10=059|8=FIX.4.4|9=118|35=X|34=174|49=SERVER1|52=20260227-06:28:31.280|56=CLIENT1|268=1|279=0|269=2|55=USDJPY|270=150.077202065304|271=46675|10=046|8=FIX.4.4|9=118|35=X|34=175|49=SERVER1|52=20260227-06:28:31.283|56=CLIENT1|268=1|279=0|269=2|55=GBPUSD|270=1.26958253492395|271=23745|10=048|8=FIX.4.4|9=118|35=X|34=176|49=SERVER1|52=20260227-06:28:31.400|56=CLIENT1|268=1|279=0|269=2|55=EURUSD|270=1.08448435295949|271=75072|10=061|8=FIX.4.4|9=118|35=X|34=177|49=SERVER1|52=20260227-06:28:31.404|56=CLIENT1|268=1|279=0|269=2|55=USDJPY|270=150.072875943625|271=27257|10=064|8=FIX.4.4|9=118|35=X|34=178|49=SERVER1|52=20260227-06:28:31.406|56=CLIENT1|268=1|279=0|269=2|55=GBPUSD|270=1.26963022029201|271=78033|10=020|8=FIX.4.4|9=118|35=X|34=179|49=SERVER1|52=20260227-06:28:31.516|56=CLIENT1|268=1|279=0|269=2|55=EURUSD|270=1.08445074841677|271=92569|10=073|8=FIX.4.4|9=117|35=X|34=180|49=SERVER1|52=20260227-06:28:31.519|56=CLIENT1|268=1|279=0|269=2|55=USDJPY|270=150.06825717531|271=87137|10=006|8=FIX.4.4|9=118|35=X|34=181|49=SERVER1|52=20260227-06:28:31.522|56=CLIENT1|268=1|279=0|269=2|55=GBPUSD|270=1.26953319863207|271=26979|10=045|8=FIX.4.4|9=118|35=X|34=182|49=SERVER1|52=20260227-06:28:31.631|56=CLIENT1|268=1|279=0|269=2|55=EURUSD|270=1.08440824805171|271=63378|10=048|8=FIX.4.4|9=118|35=X|34=183|49=SERVER1|52=20260227-06:28:31.634|56=CLIENT1|268=1|279=0|269=2|55=USDJPY|270=150.059981519891|271=61859|10=079|8=FIX.4.4|9=118|35=X|34=184|49=SERVER1|52=20260227-06:28:31.637|56=CLIENT1|268=1|279=0|269=2|55=GBPUSD|270=1.26956987127955|271=92235|10=060|8=FIX.4.4|9=118|35=X|34=185|49=SERVER1|52=20260227-06:28:31.747|56=CLIENT1|268=1|279=0|269=2|55=EURUSD|270=1.08450439940673|271=48316|10=064|8=FIX.4.4|9=117|35=X|34=186|49=SERVER1|52=20260227-06:28:31.751|56=CLIENT1|268=1|279=0|269=2|55=USDJPY|270=150.06287037548|271=95475|10=019|8=FIX.4.4|9=118|35=X|34=187|49=SERVER1|52=20260227-06:28:31.754|56=CLIENT1|268=1|279=0|269=2|55=GBPUSD|270=1.26965677567048|271=71112|10=051|8=FIX.4.4|9=118|35=X|34=188|49=SERVER1|52=20260227-06:28:31.865|56=CLIENT1|268=1|279=0|269=2|55=EURUSD|270=1.08453155674838|271=80002|10=061|8=FIX.4.4|9=118|35=X|34=189|49=SERVER1|52=20260227-06:28:31.870|56=CLIENT1|268=1|279=0|269=2|55=USDJPY|270=150.053389553035|271=28804|10=064|8=FIX.4.4|9=118|35=X|34=190|49=SERVER1|52=20260227-06:28:31.873|56=CLIENT1|268=1|279=0|269=2|55=GBPUSD|270=1.26969863201013|271=68480|10=039|8=FIX.4.4|9=118|35=X|34=191|49=SERVER1|52=20260227-06:28:31.983|56=CLIENT1|268=1|279=0|269=2|55=EURUSD|270=1.08449720403936|271=20745|10=056|8=FIX.4.4|9=118|35=X|34=192|49=SERVER1|52=20260227-06:28:31.987|56=CLIENT1|268=1|279=0|269=2|55=USDJPY|270=150.055535631877|271=21184|10=067|8=FIX.4.4|9=118|35=X|34=193|49=SERVER1|52=20260227-06:28:31.991|56=CLIENT1|268=1|279=0|269=2|55=GBPUSD|270=1.26979341502193|271=51285|10=043|8=FIX.4.4|9=118|35=X|34=194|49=SERVER1|52=20260227-06:28:32.097|56=CLIENT1|268=1|279=0|269=2|55=EURUSD|270=1.08452959298939|271=69607|10=089|8=FIX.4.4|9=118|35=X|34=195|49=SERVER1|52=20260227-06:28:32.101|56=CLIENT1|268=1|279=0|269=2|55=USDJPY|270=150.059700784527|271=41519|10=052|8=FIX.4.4|9=118|35=X|34=196|49=SERVER1|52=20260227-06:28:32.104|56=CLIENT1|268=1|279=0|269=2|55=GBPUSD|270=1.26982581694213|271=28536|10=041|8=FIX.4.4|9=118|35=X|34=197|49=SERVER1|52=20260227-06:28:32.213|56=CLIENT1|268=1|279=0|269=2|55=EURUSD|270=1.08451627892472|271=85774|10=068|8=FIX.4.4|9=118|35=X|34=198|49=SERVER1|52=20260227-06:28:32.216|56=CLIENT1|268=1|279=0|269=2|55=USDJPY|270=150.066359120977|271=16233|10=058|8=FIX.4.4|9=118|35=X|34=199|49=SERVER1|52=20260227-06:28:32.220|56=CLIENT1|268=1|279=0|269=2|55=GBPUSD|270=1.26979442930412|271=65212|10=031|8=FIX.4.4|9=118|35=X|34=200|49=SERVER1|52=20260227-06:28:32.330|56=CLIENT1|268=1|279=0|269=2|55=EURUSD|270=1.08453272875751|271=99347|10=053|8=FIX.4.4|9=118|35=X|34=201|49=SERVER1|52=20260227-06:28:32.331|56=CLIENT1|268=1|279=0|269=2|55=USDJPY|270=150.061740407702|271=88295|10=041|8=FIX.4.4|9=118|35=X|34=202|49=SERVER1|52=20260227-06:28:32.333|56=CLIENT1|268=1|279=0|269=2|55=GBPUSD|270=1.26974738510944|271=42005|10=023|8=FIX.4.4|9=118|35=X|34=203|49=SERVER1|52=20260227-06:28:32.448|56=CLIENT1|268=1|279=0|269=2|55=EURUSD|270=1.08458208241347|271=20729|10=046|8=FIX.4.4|9=118|35=X|34=204|49=SERVER1|52=20260227-06:28:32.452|56=CLIENT1|268=1|279=0|269=2|55=USDJPY|270=150.070536997145|271=29542|10=056|8=FIX.4.4|9=118|35=X|34=205|49=SERVER1|52=20260227-06:28:32.455|56=CLIENT1|268=1|279=0|269=2|55=GBPUSD|270=1.26984037554527|271=53152|10=034|8=FIX.4.4|9=118|35=X|34=206|49=SERVER1|52=20260227-06:28:32.564|56=CLIENT1|268=1|279=0|269=2|55=EURUSD|270=1.08460994580559|271=98441|10=070|8=FIX.4.4|9=118|35=X|34=207|49=SERVER1|52=20260227-06:28:32.568|56=CLIENT1|268=1|279=0|269=2|55=USDJPY|270=150.075734977244|271=68258|10=077|8=FIX.4.4|9=118|35=X|34=208|49=SERVER1|52=20260227-06:28:32.572|56=CLIENT1|268=1|279=0|269=2|55=GBPUSD|270=1.26984915273174|271=41733|10=040|8=FIX.4.4|9=118|35=X|34=209|49=SERVER1|52=20260227-06:28:32.681|56=CLIENT1|268=1|279=0|269=2|55=EURUSD|270=1.08454920587393|271=57025|10=061|8=FIX.4.4|9=117|35=X|34=210|49=SERVER1|52=20260227-06:28:32.687|56=CLIENT1|268=1|279=0|269=2|55=USDJPY|270=150.08560906964|271=95734|10=017|8=FIX.4.4|9=118|35=X|34=211|49=SERVER1|52=20260227-06:28:32.691|56=CLIENT1|268=1|279=0|269=2|55=GBPUSD|270=1.26990262674209|271=19521|10=032|8=FIX.4.4|9=118|35=X|34=212|49=SERVER1|52=20260227-06:28:32.802|56=CLIENT1|268=1|279=0|269=2|55=EURUSD|270=1.08447114536689|271=51010|10=037|8=FIX.4.4|9=118|35=X|34=213|49=SERVER1|52=20260227-06:28:32.805|56=CLIENT1|268=1|279=0|269=2|55=USDJPY|270=150.082262746428|271=46412|10=048|8=FIX.4.4|9=118|35=X|34=214|49=SERVER1|52=20260227-06:28:32.808|56=CLIENT1|268=1|279=0|269=2|55=GBPUSD|270=1.26989230132376|271=59888|10=052|8=FIX.4.4|9=118|35=X|34=215|49=SERVER1|52=20260227-06:28:32.915|56=CLIENT1|268=1|279=0|269=2|55=EURUSD|270=1.08439531848145|271=78716|10=064|8=FIX.4.4|9=118|35=X|34=216|49=SERVER1|52=20260227-06:28:32.919|56=CLIENT1|268=1|279=0|269=2|55=USDJPY|270=150.084820674078|271=54212|10=057|8=FIX.4.4|9=117|35=X|34=217|49=SERVER1|52=20260227-06:28:32.923|56=CLIENT1|268=1|279=0|269=2|55=GBPUSD|270=1.2698742322833|271=93957|10=253|8=FIX.4.4|9=118|35=X|34=218|49=SERVER1|52=20260227-06:28:33.031|56=CLIENT1|268=1|279=0|269=2|55=EURUSD|270=1.08448986665204|271=42136|10=051|8=FIX.4.4|9=118|35=X|34=219|49=SERVER1|52=20260227-06:28:33.036|56=CLIENT1|268=1|279=0|269=2|55=USDJPY|270=150.090256395194|271=22498|10=061|8=FIX.4.4|9=118|35=X|34=220|49=SERVER1|52=20260227-06:28:33.040|56=CLIENT1|268=1|279=0|269=2|55=GBPUSD|270=1.26991348554955|271=86155|10=039|8=FIX.4.4|9=118|35=X|34=221|49=SERVER1|52=20260227-06:28:33.145|56=CLIENT1|268=1|279=0|269=2|55=EURUSD|270=1.08455679097714|271=57286|10=065|8=FIX.4.4|9=118|35=X|34=222|49=SERVER1|52=20260227-06:28:33.147|56=CLIENT1|268=1|279=0|269=2|55=USDJPY|270=150.090863279682|271=14556|10=061|8=FIX.4.4|9=118|35=X|34=223|49=SERVER1|52=20260227-06:28:33.148|56=CLIENT1|268=1|279=0|269=2|55=GBPUSD|270=1.27000859786958|271=53637|10=049|8=FIX.4.4|9=118|35=X|34=224|49=SERVER1|52=20260227-06:28:33.266|56=CLIENT1|268=1|279=0|269=2|55=EURUSD|270=1.08453548224868|271=88252|10=064|8=FIX.4.4|9=118|35=X|34=225|49=SERVER1|52=20260227-06:28:33.271|56=CLIENT1|268=1|279=0|269=2|55=USDJPY|270=150.082373248333|271=76713|10=051|8=FIX.4.4|9=117|35=X|34=226|49=SERVER1|52=20260227-06:28:33.274|56=CLIENT1|268=1|279=0|269=2|55=GBPUSD|270=1.2700126083635|271=65254|10=226|8=FIX.4.4|9=118|35=X|34=227|49=SERVER1|52=20260227-06:28:33.383|56=CLIENT1|268=1|279=0|269=2|55=EURUSD|270=1.08458261830582|271=23499|10=062|8=FIX.4.4|9=118|35=X|34=228|49=SERVER1|52=20260227-06:28:33.388|56=CLIENT1|268=1|279=0|269=2|55=USDJPY|270=150.084095089642|271=69637|10=079|8=FIX.4.4|9=118|35=X|34=229|49=SERVER1|52=20260227-06:28:33.392|56=CLIENT1|268=1|279=0|269=2|55=GBPUSD|270=1.27010286124878|271=14000|10=019|8=FIX.4.4|9=118|35=X|34=230|49=SERVER1|52=20260227-06:28:33.498|56=CLIENT1|268=1|279=0|269=2|55=EURUSD|270=1.08463360495866|271=92745|10=071|8=FIX.4.4|9=118|35=X|34=231|49=SERVER1|52=20260227-06:28:33.502|56=CLIENT1|268=1|279=0|269=2|55=USDJPY|270=150.076463020596|271=49816|10=051|8=FIX.4.4|9=117|35=X|34=232|49=SERVER1|52=20260227-06:28:33.506|56=CLIENT1|268=1|279=0|269=2|55=GBPUSD|270=1.2701404204648|271=88491|10=228|8=FIX.4.4|9=118|35=X|34=233|49=SERVER1|52=20260227-06:28:33.615|56=CLIENT1|268=1|279=0|269=2|55=EURUSD|270=1.08458033369791|271=76271|10=059|8=FIX.4.4|9=118|35=X|34=234|49=SERVER1|52=20260227-06:28:33.621|56=CLIENT1|268=1|279=0|269=2|55=USDJPY|270=150.074357170083|271=60088|10=047|8=FIX.4.4|9=118|35=X|34=235|49=SERVER1|52=20260227-06:28:33.624|56=CLIENT1|268=1|279=0|269=2|55=GBPUSD|270=1.27022913892691|271=73364|10=037|8=FIX.4.4|9=118|35=X|34=236|49=SERVER1|52=20260227-06:28:33.732|56=CLIENT1|268=1|279=0|269=2|55=EURUSD|270=1.08456879478083|271=69978|10=089|8=FIX.4.4|9=118|35=X|34=237|49=SERVER1|52=20260227-06:28:33.735|56=CLIENT1|268=1|279=0|269=2|55=USDJPY|270=150.067416484735|271=39777|10=077|8=FIX.4.4|9=118|35=X|34=238|49=SERVER1|52=20260227-06:28:33.738|56=CLIENT1|268=1|279=0|269=2|55=GBPUSD|270=1.27021400082626|271=67039|10=027|8=FIX.4.4|9=118|35=X|34=239|49=SERVER1|52=20260227-06:28:33.850|56=CLIENT1|268=1|279=0|269=2|55=EURUSD|270=1.08450452473742|271=27735|10=056|8=FIX.4.4|9=118|35=X|34=240|49=SERVER1|52=20260227-06:28:33.853|56=CLIENT1|268=1|279=0|269=2|55=USDJPY|270=150.073850908361|271=54548|10=060|8=FIX.4.4|9=118|35=X|34=241|49=SERVER1|52=20260227-06:28:33.856|56=CLIENT1|268=1|279=0|269=2|55=GBPUSD|270=1.27027119680774|271=89900|10=044|8=FIX.4.4|9=118|35=X|34=242|49=SERVER1|52=20260227-06:28:33.964|56=CLIENT1|268=1|279=0|269=2|55=EURUSD|270=1.08448276133605|271=89473|10=065|8=FIX.4.4|9=118|35=X|34=243|49=SERVER1|52=20260227-06:28:33.968|56=CLIENT1|268=1|279=0|269=2|55=USDJPY|270=150.076798286351|271=45711|10=074|8=FIX.4.4|9=117|35=X|34=244|49=SERVER1|52=20260227-06:28:33.971|56=CLIENT1|268=1|279=0|269=2|55=GBPUSD|270=1.2703328996283|271=10537|10=243|8=FIX.4.4|9=118|35=X|34=245|49=SERVER1|52=20260227-06:28:34.081|56=CLIENT1|268=1|279=0|269=2|55=EURUSD|270=1.08452147369773|271=43965|10=064|8=FIX.4.4|9=117|35=X|34=246|49=SERVER1|52=20260227-06:28:34.085|56=CLIENT1|268=1|279=0|269=2|55=USDJPY|270=150.07111866468|271=19482|10=011|8=FIX.4.4|9=118|35=X|34=247|49=SERVER1|52=20260227-06:28:34.088|56=CLIENT1|268=1|279=0|269=2|55=GBPUSD|270=1.27043096360763|271=95438|10=046|8=FIX.4.4|9=118|35=X|34=248|49=SERVER1|52=20260227-06:28:34.198|56=CLIENT1|268=1|279=0|269=2|55=EURUSD|270=1.08448698678476|271=39962|10=097|8=FIX.4.4|9=118|35=X|34=249|49=SERVER1|52=20260227-06:28:34.204|56=CLIENT1|268=1|279=0|269=2|55=USDJPY|270=150.074906321706|271=49478|10=061|8=FIX.4.4|9=118|35=X|34=250|49=SERVER1|52=20260227-06:28:34.207|56=CLIENT1|268=1|279=0|269=2|55=GBPUSD|270=1.27049766372734|271=30394|10=034|8=FIX.4.4|9=118|35=X|34=251|49=SERVER1|52=20260227-06:28:34.317|56=CLIENT1|268=1|279=0|269=2|55=EURUSD|270=1.08457183506593|271=25052|10=048|8=FIX.4.4|9=118|35=X|34=252|49=SERVER1|52=20260227-06:28:34.322|56=CLIENT1|268=1|279=0|269=2|55=USDJPY|270=150.082145931364|271=48857|10=057|8=FIX.4.4|9=118|35=X|34=253|49=SERVER1|52=20260227-06:28:34.325|56=CLIENT1|268=1|279=0|269=2|55=GBPUSD|270=1.27049184120906|271=56298|10=035|8=FIX.4.4|9=118|35=X|34=254|49=SERVER1|52=20260227-06:28:34.431|56=CLIENT1|268=1|279=0|269=2|55=EURUSD|270=1.08464869126943|271=85386|10=070|8=FIX.4.4|9=118|35=X|34=255|49=SERVER1|52=20260227-06:28:34.437|56=CLIENT1|268=1|279=0|269=2|55=USDJPY|270=150.075112108947|271=23927|10=057|8=FIX.4.4|9=118|35=X|34=256|49=SERVER1|52=20260227-06:28:34.440|56=CLIENT1|268=1|279=0|269=2|55=GBPUSD|270=1.27043181377316|271=99604|10=034|8=FIX.4.4|9=118|35=X|34=257|49=SERVER1|52=20260227-06:28:34.546|56=CLIENT1|268=1|279=0|269=2|55=EURUSD|270=1.08467657009011|271=77384|10=063|8=FIX.4.4|9=118|35=X|34=258|49=SERVER1|52=20260227-06:28:34.548|56=CLIENT1|268=1|279=0|269=2|55=USDJPY|270=150.081623785265|271=12554|10=065|8=FIX.4.4|9=118|35=X|34=259|49=SERVER1|52=20260227-06:28:34.552|56=CLIENT1|268=1|279=0|269=2|55=GBPUSD|270=1.27034844395347|271=38667|10=053|8=FIX.4.4|9=118|35=X|34=260|49=SERVER1|52=20260227-06:28:34.668|56=CLIENT1|268=1|279=0|269=2|55=EURUSD|270=1.08468338291505|271=80380|10=060|8=FIX.4.4|9=118|35=X|34=261|49=SERVER1|52=20260227-06:28:34.671|56=CLIENT1|268=1|279=0|269=2|55=USDJPY|270=150.086356689769|271=20053|10=069|8=FIX.4.4|9=118|35=X|34=262|49=SERVER1|52=20260227-06:28:34.673|56=CLIENT1|268=1|279=0|269=2|55=GBPUSD|270=1.27027570246329|271=33564|10=035|8=FIX.4.4|9=118|35=X|34=263|49=SERVER1|52=20260227-06:28:34.784|56=CLIENT1|268=1|279=0|269=2|55=EURUSD|270=1.08467383186871|271=54566|10=077|8=FIX.4.4|9=118|35=X|34=264|49=SERVER1|52=20260227-06:28:34.787|56=CLIENT1|268=1|279=0|269=2|55=USDJPY|270=150.080150897931|271=70628|10=071|8=FIX.4.4|9=118|35=X|34=265|49=SERVER1|52=20260227-06:28:34.788|56=CLIENT1|268=1|279=0|269=2|55=GBPUSD|270=1.27021109307775|271=23284|10=038|8=FIX.4.4|9=117|35=X|34=266|49=SERVER1|52=20260227-06:28:34.897|56=CLIENT1|268=1|279=0|269=2|55=EURUSD|270=1.0845848266987|271=18683|10=041|8=FIX.4.4|9=118|35=X|34=267|49=SERVER1|52=20260227-06:28:34.901|56=CLIENT1|268=1|279=0|269=2|55=USDJPY|270=150.076628390075|271=60450|10=056|8=FIX.4.4|9=118|35=X|34=268|49=SERVER1|52=20260227-06:28:34.904|56=CLIENT1|268=1|279=0|269=2|55=GBPUSD|270=1.27029701485159|271=12226|10=034|8=FIX.4.4|9=118|35=X|34=269|49=SERVER1|52=20260227-06:28:35.014|56=CLIENT1|268=1|279=0|269=2|55=EURUSD|270=1.08465095529563|271=62451|10=059|8=FIX.4.4|9=117|35=X|34=270|49=SERVER1|52=20260227-06:28:35.017|56=CLIENT1|268=1|279=0|269=2|55=USDJPY|270=150.08293633434|271=22783|10=255|8=FIX.4.4|9=118|35=X|34=271|49=SERVER1|52=20260227-06:28:35.020|56=CLIENT1|268=1|279=0|269=2|55=GBPUSD|270=1.27022810324514|271=99003|10=007|8=FIX.4.4|9=118|35=X|34=272|49=SERVER1|52=20260227-06:28:35.130|56=CLIENT1|268=1|279=0|269=2|55=EURUSD|270=1.08455105977067|271=13021|10=038|8=FIX.4.4|9=118|35=X|34=273|49=SERVER1|52=20260227-06:28:35.132|56=CLIENT1|268=1|279=0|269=2|55=USDJPY|270=150.081122121978|271=65131|10=040|8=FIX.4.4|9=118|35=X|34=274|49=SERVER1|52=20260227-06:28:35.135|56=CLIENT1|268=1|279=0|269=2|55=GBPUSD|270=1.27032609328598|271=49903|10=044|8=FIX.4.4|9=118|35=X|34=275|49=SERVER1|52=20260227-06:28:35.248|56=CLIENT1|268=1|279=0|269=2|55=EURUSD|270=1.08445455741288|271=53157|10=066|8=FIX.4.4|9=118|35=X|34=276|49=SERVER1|52=20260227-06:28:35.249|56=CLIENT1|268=1|279=0|269=2|55=USDJPY|270=150.087149073948|271=95626|10=082|8=FIX.4.4|9=118|35=X|34=277|49=SERVER1|52=20260227-06:28:35.250|56=CLIENT1|268=1|279=0|269=2|55=GBPUSD|270=1.27026035629082|271=54828|10=035|8=FIX.4.4|9=117|35=X|34=278|49=SERVER1|52=20260227-06:28:35.360|56=CLIENT1|268=1|279=0|269=2|55=EURUSD|270=1.0845347279112|271=34652|10=002|8=FIX.4.4|9=118|35=X|34=279|49=SERVER1|52=20260227-06:28:35.361|56=CLIENT1|268=1|279=0|269=2|55=USDJPY|270=150.081176352668|271=86066|10=071|8=FIX.4.4|9=118|35=X|34=280|49=SERVER1|52=20260227-06:28:35.361|56=CLIENT1|268=1|279=0|269=2|55=GBPUSD|270=1.27030808434918|271=82079|10=036|8=FIX.4.4|9=118|35=X|34=281|49=SERVER1|52=20260227-06:28:35.471|56=CLIENT1|268=1|279=0|269=2|55=EURUSD|270=1.08455194474864|271=32206|10=057|8=FIX.4.4|9=118|35=X|34=282|49=SERVER1|52=20260227-06:28:35.472|56=CLIENT1|268=1|279=0|269=2|55=USDJPY|270=150.084504677017|271=63188|10=064|8=FIX.4.4|9=118|35=X|34=283|49=SERVER1|52=20260227-06:28:35.473|56=CLIENT1|268=1|279=0|269=2|55=GBPUSD|270=1.27032184265376|271=66337|10=041|8=FIX.4.4|9=117|35=X|34=284|49=SERVER1|52=20260227-06:28:35.583|56=CLIENT1|268=1|279=0|269=2|55=EURUSD|270=1.0845841336595|271=91149|10=018|8=FIX.4.4|9=118|35=X|34=285|49=SERVER1|52=20260227-06:28:35.585|56=CLIENT1|268=1|279=0|269=2|55=USDJPY|270=150.074993919949|271=90168|10=094|8=FIX.4.4|9=118|35=X|34=286|49=SERVER1|52=20260227-06:28:35.587|56=CLIENT1|268=1|279=0|269=2|55=GBPUSD|270=1.27041830329853|271=80427|10=045|8=FIX.4.4|9=118|35=X|34=287|49=SERVER1|52=20260227-06:28:35.694|56=CLIENT1|268=1|279=0|269=2|55=EURUSD|270=1.08460407408331|271=62330|10=050|8=FIX.4.4|9=118|35=X|34=288|49=SERVER1|52=20260227-06:28:35.696|56=CLIENT1|268=1|279=0|269=2|55=USDJPY|270=150.083560181184|271=18688|10=079|8=FIX.4.4|9=118|35=X|34=289|49=SERVER1|52=20260227-06:28:35.699|56=CLIENT1|268=1|279=0|269=2|55=GBPUSD|270=1.27050366070655|271=11528|10=045|8=FIX.4.4|9=118|35=X|34=290|49=SERVER1|52=20260227-06:28:35.806|56=CLIENT1|268=1|279=0|269=2|55=EURUSD|270=1.08452824599833|271=13591|10=066|8=FIX.4.4|9=118|35=X|34=291|49=SERVER1|52=20260227-06:28:35.807|56=CLIENT1|268=1|279=0|269=2|55=USDJPY|270=150.085262516739|271=53587|10=073|8=FIX.4.4|9=117|35=X|34=292|49=SERVER1|52=20260227-06:28:35.808|56=CLIENT1|268=1|279=0|269=2|55=GBPUSD|270=1.2705726318425|271=21658|10=243|8=FIX.4.4|9=118|35=X|34=293|49=SERVER1|52=20260227-06:28:35.916|56=CLIENT1|268=1|279=0|269=2|55=EURUSD|270=1.08455003379334|271=59706|10=063|8=FIX.4.4|9=118|35=X|34=294|49=SERVER1|52=20260227-06:28:35.918|56=CLIENT1|268=1|279=0|269=2|55=USDJPY|270=150.087860184333|271=86347|10=076|8=FIX.4.4|9=118|35=X|34=295|49=SERVER1|52=20260227-06:28:35.919|56=CLIENT1|268=1|279=0|269=2|55=GBPUSD|270=1.27056304462622|271=65324|10=037|8=FIX.4.4|9=117|35=X|34=296|49=SERVER1|52=20260227-06:28:36.028|56=CLIENT1|268=1|279=0|269=2|55=EURUSD|270=1.0845225160867|271=16070|10=255|8=FIX.4.4|9=118|35=X|34=297|49=SERVER1|52=20260227-06:28:36.031|56=CLIENT1|268=1|279=0|269=2|55=USDJPY|270=150.082280302008|271=54061|10=036|8=FIX.4.4|9=118|35=X|34=298|49=SERVER1|52=20260227-06:28:36.033|56=CLIENT1|268=1|279=0|269=2|55=GBPUSD|270=1.27050154670405|271=97825|10=036|8=FIX.4.4|9=117|35=X|34=299|49=SERVER1|52=20260227-06:28:36.140|56=CLIENT1|268=1|279=0|269=2|55=EURUSD|270=1.0846123845554|271=28494|10=011|8=FIX.4.4|9=118|35=X|34=300|49=SERVER1|52=20260227-06:28:36.141|56=CLIENT1|268=1|279=0|269=2|55=USDJPY|270=150.075210600185|271=47877|10=042|8=FIX.4.4|9=118|35=X|34=301|49=SERVER1|52=20260227-06:28:36.142|56=CLIENT1|268=1|279=0|269=2|55=GBPUSD|270=1.27053869347097|271=13838|10=038|8=FIX.4.4|9=117|35=X|34=302|49=SERVER1|52=20260227-06:28:36.251|56=CLIENT1|268=1|279=0|269=2|55=EURUSD|270=1.0846394241399|271=30814|10=251|8=FIX.4.4|9=118|35=X|34=303|49=SERVER1|52=20260227-06:28:36.252|56=CLIENT1|268=1|279=0|269=2|55=USDJPY|270=150.085106095246|271=58474|10=054|8=FIX.4.4|9=118|35=X|34=304|49=SERVER1|52=20260227-06:28:36.252|56=CLIENT1|268=1|279=0|269=2|55=GBPUSD|270=1.27057772607912|271=76942|10=040|8=FIX.4.4|9=118|35=X|34=305|49=SERVER1|52=20260227-06:28:36.363|56=CLIENT1|268=1|279=0|269=2|55=EURUSD|270=1.08460703424757|271=58222|10=049|8=FIX.4.4|9=118|35=X|34=306|49=SERVER1|52=20260227-06:28:36.365|56=CLIENT1|268=1|279=0|269=2|55=USDJPY|270=150.084009758494|271=99090|10=073|8=FIX.4.4|9=118|35=X|34=307|49=SERVER1|52=20260227-06:28:36.367|56=CLIENT1|268=1|279=0|269=2|55=GBPUSD|270=1.27062274173472|271=54132|10=029|8=FIX.4.4|9=118|35=X|34=308|49=SERVER1|52=20260227-06:28:36.475|56=CLIENT1|268=1|279=0|269=2|55=EURUSD|270=1.08467763387808|271=45823|10=077|8=FIX.4.4|9=118|35=X|34=309|49=SERVER1|52=20260227-06:28:36.477|56=CLIENT1|268=1|279=0|269=2|55=USDJPY|270=150.091043673334|271=34326|10=056|8=FIX.4.4|9=118|35=X|34=310|49=SERVER1|52=20260227-06:28:36.480|56=CLIENT1|268=1|279=0|269=2|55=GBPUSD|270=1.27056443400651|271=95266|10=025|8=FIX.4.4|9=118|35=X|34=311|49=SERVER1|52=20260227-06:28:36.587|56=CLIENT1|268=1|279=0|269=2|55=EURUSD|270=1.08464781320727|271=67628|10=066|8=FIX.4.4|9=118|35=X|34=312|49=SERVER1|52=20260227-06:28:36.590|56=CLIENT1|268=1|279=0|269=2|55=USDJPY|270=150.089384252453|271=45976|10=069|8=FIX.4.4|9=118|35=X|34=313|49=SERVER1|52=20260227-06:28:36.592|56=CLIENT1|268=1|279=0|269=2|55=GBPUSD|270=1.27060810729194|271=95314|10=035|8=FIX.4.4|9=118|35=X|34=314|49=SERVER1|52=20260227-06:28:36.698|56=CLIENT1|268=1|279=0|269=2|55=EURUSD|270=1.08456422744792|271=95579|10=083|8=FIX.4.4|9=118|35=X|34=315|49=SERVER1|52=20260227-06:28:36.700|56=CLIENT1|268=1|279=0|269=2|55=USDJPY|270=150.080663881638|271=22783|10=060|8=FIX.4.4|9=118|35=X|34=316|49=SERVER1|52=20260227-06:28:36.702|56=CLIENT1|268=1|279=0|269=2|55=GBPUSD|270=1.27054139938096|271=25868|10=048|8=FIX.4.4|9=118|35=X|34=317|49=SERVER1|52=20260227-06:28:36.808|56=CLIENT1|268=1|279=0|269=2|55=EURUSD|270=1.08453841906158|271=61634|10=062|8=FIX.4.4|9=118|35=X|34=318|49=SERVER1|52=20260227-06:28:36.809|56=CLIENT1|268=1|279=0|269=2|55=USDJPY|270=150.071705439549|271=20188|10=067|8=FIX.4.4|9=118|35=X|34=319|49=SERVER1|52=20260227-06:28:36.811|56=CLIENT1|268=1|279=0|269=2|55=GBPUSD|270=1.27047191406951|271=75580|10=038|8=FIX.4.4|9=118|35=X|34=320|49=SERVER1|52=20260227-06:28:36.919|56=CLIENT1|268=1|279=0|269=2|55=EURUSD|270=1.08458598739214|271=45683|10=076|8=FIX.4.4|9=118|35=X|34=321|49=SERVER1|52=20260227-06:28:36.920|56=CLIENT1|268=1|279=0|269=2|55=USDJPY|270=150.062264729503|271=87440|10=051|8=FIX.4.4|9=118|35=X|34=322|49=SERVER1|52=20260227-06:28:36.921|56=CLIENT1|268=1|279=0|269=2|55=GBPUSD|270=1.27055879509402|271=18869|10=048|8=FIX.4.4|9=117|35=X|34=323|49=SERVER1|52=20260227-06:28:37.031|56=CLIENT1|268=1|279=0|269=2|55=EURUSD|270=1.0846691909544|271=87305|10=005|8=FIX.4.4|9=118|35=X|34=324|49=SERVER1|52=20260227-06:28:37.032|56=CLIENT1|268=1|279=0|269=2|55=USDJPY|270=150.067975909277|271=77422|10=070|8=FIX.4.4|9=118|35=X|34=325|49=SERVER1|52=20260227-06:28:37.034|56=CLIENT1|268=1|279=0|269=2|55=GBPUSD|270=1.27060466094978|271=25984|10=048|8=FIX.4.4|9=118|35=X|34=326|49=SERVER1|52=20260227-06:28:37.142|56=CLIENT1|268=1|279=0|269=2|55=EURUSD|270=1.08464890885382|271=69090|10=069|8=FIX.4.4|9=118|35=X|34=327|49=SERVER1|52=20260227-06:28:37.145|56=CLIENT1|268=1|279=0|269=2|55=USDJPY|270=150.062291974584|271=12780|10=063|8=FIX.4.4|9=118|35=X|34=328|49=SERVER1|52=20260227-06:28:37.147|56=CLIENT1|268=1|279=0|269=2|55=GBPUSD|270=1.27069248929091|271=15282|10=046|8=FIX.4.4|9=118|35=X|34=329|49=SERVER1|52=20260227-06:28:37.253|56=CLIENT1|268=1|279=0|269=2|55=EURUSD|270=1.08463319021862|271=36598|10=062|8=FIX.4.4|9=117|35=X|34=330|49=SERVER1|52=20260227-06:28:37.254|56=CLIENT1|268=1|279=0|269=2|55=USDJPY|270=150.05895070028|271=38514|10=255|8=FIX.4.4|9=118|35=X|34=331|49=SERVER1|52=20260227-06:28:37.256|56=CLIENT1|268=1|279=0|269=2|55=GBPUSD|270=1.27076930762096|271=68338|10=047|8=FIX.4.4|9=118|35=X|34=332|49=SERVER1|52=20260227-06:28:37.365|56=CLIENT1|268=1|279=0|269=2|55=EURUSD|270=1.08453823585468|271=28141|10=061|8=FIX.4.4|9=118|35=X|34=333|49=SERVER1|52=20260227-06:28:37.367|56=CLIENT1|268=1|279=0|269=2|55=USDJPY|270=150.049460693513|271=60313|10=054|8=FIX.4.4|9=118|35=X|34=334|49=SERVER1|52=20260227-06:28:37.370|56=CLIENT1|268=1|279=0|269=2|55=GBPUSD|270=1.27084012761069|271=70876|10=036|8=FIX.4.4|9=118|35=X|34=335|49=SERVER1|52=20260227-06:28:37.481|56=CLIENT1|268=1|279=0|269=2|55=EURUSD|270=1.08445445095153|271=50142|10=047|8=FIX.4.4|9=118|35=X|34=336|49=SERVER1|52=20260227-06:28:37.483|56=CLIENT1|268=1|279=0|269=2|55=USDJPY|270=150.040545483204|271=43262|10=049|8=FIX.4.4|9=118|35=X|34=337|49=SERVER1|52=20260227-06:28:37.484|56=CLIENT1|268=1|279=0|269=2|55=GBPUSD|270=1.27089949910585|271=69653|10=069|8=FIX.4.4|9=118|35=X|34=338|49=SERVER1|52=20260227-06:28:37.595|56=CLIENT1|268=1|279=0|269=2|55=EURUSD|270=1.08442061675119|271=18344|10=061|8=FIX.4.4|9=118|35=X|34=339|49=SERVER1|52=20260227-06:28:37.597|56=CLIENT1|268=1|279=0|269=2|55=USDJPY|270=150.031737773824|271=20634|10=069|8=FIX.4.4|9=118|35=X|34=340|49=SERVER1|52=20260227-06:28:37.599|56=CLIENT1|268=1|279=0|269=2|55=GBPUSD|270=1.27099718269125|271=74439|10=060|8=FIX.4.4|9=118|35=X|34=341|49=SERVER1|52=20260227-06:28:37.715|56=CLIENT1|268=1|279=0|269=2|55=EURUSD|270=1.08441932512042|271=73623|10=041|8=FIX.4.4|9=118|35=X|34=342|49=SERVER1|52=20260227-06:28:37.716|56=CLIENT1|268=1|279=0|269=2|55=USDJPY|270=150.041727606211|271=46410|10=041|8=FIX.4.4|9=118|35=X|34=343|49=SERVER1|52=20260227-06:28:37.717|56=CLIENT1|268=1|279=0|269=2|55=GBPUSD|270=1.27091065795182|271=47307|10=043|8=FIX.4.4|9=118|35=X|34=344|49=SERVER1|52=20260227-06:28:37.833|56=CLIENT1|268=1|279=0|269=2|55=EURUSD|270=1.08441229310839|271=86372|10=059|8=FIX.4.4|9=118|35=X|34=345|49=SERVER1|52=20260227-06:28:37.834|56=CLIENT1|268=1|279=0|269=2|55=USDJPY|270=150.039021768084|271=83639|10=070|8=FIX.4.4|9=118|35=X|34=346|49=SERVER1|52=20260227-06:28:37.835|56=CLIENT1|268=1|279=0|269=2|55=GBPUSD|270=1.27083070226064|271=47953|10=039|8=FIX.4.4|9=118|35=X|34=347|49=SERVER1|52=20260227-06:28:37.938|56=CLIENT1|268=1|279=0|269=2|55=EURUSD|270=1.08448608561995|271=42367|10=083|8=FIX.4.4|9=118|35=X|34=348|49=SERVER1|52=20260227-06:28:37.939|56=CLIENT1|268=1|279=0|269=2|55=USDJPY|270=150.030155861935|271=58032|10=066|8=FIX.4.4|9=118|35=X|34=349|49=SERVER1|52=20260227-06:28:37.941|56=CLIENT1|268=1|279=0|269=2|55=GBPUSD|270=1.27080961553162|271=40226|10=034|8=FIX.4.4|9=117|35=X|34=350|49=SERVER1|52=20260227-06:28:38.048|56=CLIENT1|268=1|279=0|269=2|55=EURUSD|270=1.0844212194262|271=13872|10=248|8=FIX.4.4|9=118|35=X|34=351|49=SERVER1|52=20260227-06:28:38.050|56=CLIENT1|268=1|279=0|269=2|55=USDJPY|270=150.037286168555|271=91464|10=061|8=FIX.4.4|9=118|35=X|34=352|49=SERVER1|52=20260227-06:28:38.052|56=CLIENT1|268=1|279=0|269=2|55=GBPUSD|270=1.27084469376777|271=39998|10=068|8=FIX.4.4|9=118|35=X|34=353|49=SERVER1|52=20260227-06:28:38.158|56=CLIENT1|268=1|279=0|269=2|55=EURUSD|270=1.08440749229721|271=92092|10=061|8=FIX.4.4|9=118|35=X|34=354|49=SERVER1|52=20260227-06:28:38.159|56=CLIENT1|268=1|279=0|269=2|55=USDJPY|270=150.029366400033|271=32733|10=048|8=FIX.4.4|9=118|35=X|34=355|49=SERVER1|52=20260227-06:28:38.161|56=CLIENT1|268=1|279=0|269=2|55=GBPUSD|270=1.27077100677808|271=76264|10=042|8=FIX.4.4|9=118|35=X|34=356|49=SERVER1|52=20260227-06:28:38.263|56=CLIENT1|268=1|279=0|269=2|55=EURUSD|270=1.08441986458146|271=95693|10=080|8=FIX.4.4|9=118|35=X|34=357|49=SERVER1|52=20260227-06:28:38.266|56=CLIENT1|268=1|279=0|269=2|55=USDJPY|270=150.024957288426|271=63749|10=082|8=FIX.4.4|9=118|35=X|34=358|49=SERVER1|52=20260227-06:28:38.269|56=CLIENT1|268=1|279=0|269=2|55=GBPUSD|270=1.27073099417574|271=41771|10=054|8=FIX.4.4|9=118|35=X|34=359|49=SERVER1|52=20260227-06:28:38.376|56=CLIENT1|268=1|279=0|269=2|55=EURUSD|270=1.08438325705471|271=29134|10=064|8=FIX.4.4|9=118|35=X|34=360|49=SERVER1|52=20260227-06:28:38.379|56=CLIENT1|268=1|279=0|269=2|55=USDJPY|270=150.032856122019|271=43316|10=051|8=FIX.4.4|9=118|35=X|34=361|49=SERVER1|52=20260227-06:28:38.382|56=CLIENT1|268=1|279=0|269=2|55=GBPUSD|270=1.27066929147038|271=31824|10=041|8=FIX.4.4|9=117|35=X|34=362|49=SERVER1|52=20260227-06:28:38.487|56=CLIENT1|268=1|279=0|269=2|55=EURUSD|270=1.0842940079328|271=45305|10=009|8=FIX.4.4|9=118|35=X|34=363|49=SERVER1|52=20260227-06:28:38.489|56=CLIENT1|268=1|279=0|269=2|55=USDJPY|270=150.040989588567|271=11195|10=086|8=FIX.4.4|9=118|35=X|34=364|49=SERVER1|52=20260227-06:28:38.491|56=CLIENT1|268=1|279=0|269=2|55=GBPUSD|270=1.27074872973989|271=73803|10=066|8=FIX.4.4|9=118|35=X|34=365|49=SERVER1|52=20260227-06:28:38.596|56=CLIENT1|268=1|279=0|269=2|55=EURUSD|270=1.08432159848818|271=18403|10=074|8=FIX.4.4|9=118|35=X|34=366|49=SERVER1|52=20260227-06:28:38.598|56=CLIENT1|268=1|279=0|269=2|55=USDJPY|270=150.037136926475|271=93259|10=085|8=FIX.4.4|9=118|35=X|34=367|49=SERVER1|52=20260227-06:28:38.600|56=CLIENT1|268=1|279=0|269=2|55=GBPUSD|270=1.27082487932385|271=19150|10=042|8=FIX.4.4|9=118|35=X|34=368|49=SERVER1|52=20260227-06:28:38.710|56=CLIENT1|268=1|279=0|269=2|55=EURUSD|270=1.08442067643264|271=74837|10=065|8=FIX.4.4|9=118|35=X|34=369|49=SERVER1|52=20260227-06:28:38.711|56=CLIENT1|268=1|279=0|269=2|55=USDJPY|270=150.038958462954|271=36761|10=080|8=FIX.4.4|9=118|35=X|34=370|49=SERVER1|52=20260227-06:28:38.713|56=CLIENT1|268=1|279=0|269=2|55=GBPUSD|270=1.27073728836786|271=67490|10=057|8=FIX.4.4|9=118|35=X|34=371|49=SERVER1|52=20260227-06:28:38.816|56=CLIENT1|268=1|279=0|269=2|55=EURUSD|270=1.08437997074235|271=14171|10=063|8=FIX.4.4|9=118|35=X|34=372|49=SERVER1|52=20260227-06:28:38.819|56=CLIENT1|268=1|279=0|269=2|55=USDJPY|270=150.039067025767|271=95314|10=071|8=FIX.4.4|9=118|35=X|34=373|49=SERVER1|52=20260227-06:28:38.821|56=CLIENT1|268=1|279=0|269=2|55=GBPUSD|270=1.27074767485928|271=66796|10=070|8=FIX.4.4|9=118|35=X|34=374|49=SERVER1|52=20260227-06:28:38.927|56=CLIENT1|268=1|279=0|269=2|55=EURUSD|270=1.08429794907359|271=22000|10=067|8=FIX.4.4|9=118|35=X|34=375|49=SERVER1|52=20260227-06:28:38.929|56=CLIENT1|268=1|279=0|269=2|55=USDJPY|270=150.043329532799|271=79952|10=090|8=FIX.4.4|9=118|35=X|34=376|49=SERVER1|52=20260227-06:28:38.932|56=CLIENT1|268=1|279=0|269=2|55=GBPUSD|270=1.27082870180686|271=91320|10=044|8=FIX.4.4|9=117|35=X|34=377|49=SERVER1|52=20260227-06:28:39.046|56=CLIENT1|268=1|279=0|269=2|55=EURUSD|270=1.0843252075459|271=19823|10=011|8=FIX.4.4|9=118|35=X|34=378|49=SERVER1|52=20260227-06:28:39.048|56=CLIENT1|268=1|279=0|269=2|55=USDJPY|270=150.049845709882|271=69729|10=095|8=FIX.4.4|9=118|35=X|34=379|49=SERVER1|52=20260227-06:28:39.049|56=CLIENT1|268=1|279=0|269=2|55=GBPUSD|270=1.27086062388543|271=36457|10=056|8=FIX.4.4|9=118|35=X|34=380|49=SERVER1|52=20260227-06:28:39.160|56=CLIENT1|268=1|279=0|269=2|55=EURUSD|270=1.08437447023096|271=67805|10=057|8=FIX.4.4|9=118|35=X|34=381|49=SERVER1|52=20260227-06:28:39.161|56=CLIENT1|268=1|279=0|269=2|55=USDJPY|270=150.048430785646|271=14360|10=057|8=FIX.4.4|9=117|35=X|34=382|49=SERVER1|52=20260227-06:28:39.163|56=CLIENT1|268=1|279=0|269=2|55=GBPUSD|270=1.2708942071105|271=39896|10=248|8=FIX.4.4|9=118|35=X|34=383|49=SERVER1|52=20260227-06:28:39.269|56=CLIENT1|268=1|279=0|269=2|55=EURUSD|270=1.08441657155566|271=57349|10=078|8=FIX.4.4|9=118|35=X|34=384|49=SERVER1|52=20260227-06:28:39.270|56=CLIENT1|268=1|279=0|269=2|55=USDJPY|270=150.053024974633|271=31659|10=062|8=FIX.4.4|9=116|35=X|34=385|49=SERVER1|52=20260227-06:28:39.303|56=CLIENT1|268=1|279=0|269=2|55=GBPUSD|270=1.270978030559|271=80324|10=189|8=FIX.4.4|9=118|35=X|34=386|49=SERVER1|52=20260227-06:28:39.439|56=CLIENT1|268=1|279=0|269=2|55=EURUSD|270=1.08437416695141|271=44492|10=071|8=FIX.4.4|9=118|35=X|34=387|49=SERVER1|52=20260227-06:28:39.441|56=CLIENT1|268=1|279=0|269=2|55=USDJPY|270=150.058627484556|271=60100|10=062|8=FIX.4.4|9=117|35=X|34=388|49=SERVER1|52=20260227-06:28:39.442|56=CLIENT1|268=1|279=0|269=2|55=GBPUSD|270=1.2709573347171|271=89656|10=007|8=FIX.4.4|9=118|35=X|34=389|49=SERVER1|52=20260227-06:28:39.548|56=CLIENT1|268=1|279=0|269=2|55=EURUSD|270=1.08435376447182|271=80216|10=072|8=FIX.4.4|9=118|35=X|34=390|49=SERVER1|52=20260227-06:28:39.550|56=CLIENT1|268=1|279=0|269=2|55=USDJPY|270=150.055379161937|271=31827|10=067|8=FIX.4.4|9=117|35=X|34=391|49=SERVER1|52=20260227-06:28:39.552|56=CLIENT1|268=1|279=0|269=2|55=GBPUSD|270=1.2708576329757|271=76713|10=005|8=FIX.4.4|9=116|35=X|34=392|49=SERVER1|52=20260227-06:28:39.663|56=CLIENT1|268=1|279=0|269=2|55=EURUSD|270=1.084274727121|271=28179|10=215|8=FIX.4.4|9=118|35=X|34=393|49=SERVER1|52=20260227-06:28:39.665|56=CLIENT1|268=1|279=0|269=2|55=USDJPY|270=150.060820657109|271=59459|10=076|8=FIX.4.4|9=118|35=X|34=394|49=SERVER1|52=20260227-06:28:39.667|56=CLIENT1|268=1|279=0|269=2|55=GBPUSD|270=1.27085467885694|271=80115|10=066|8=FIX.4.4|9=118|35=X|34=395|49=SERVER1|52=20260227-06:28:39.779|56=CLIENT1|268=1|279=0|269=2|55=EURUSD|270=1.08427460556217|271=81907|10=078|8=FIX.4.4|9=118|35=X|34=396|49=SERVER1|52=20260227-06:28:39.781|56=CLIENT1|268=1|279=0|269=2|55=USDJPY|270=150.065507478679|271=84766|10=097|8=FIX.4.4|9=118|35=X|34=397|49=SERVER1|52=20260227-06:28:39.784|56=CLIENT1|268=1|279=0|269=2|55=GBPUSD|270=1.27078027029613|271=16559|10=055|8=FIX.4.4|9=118|35=X|34=398|49=SERVER1|52=20260227-06:28:39.891|56=CLIENT1|268=1|279=0|269=2|55=EURUSD|270=1.08419231105443|271=55284|10=063|8=FIX.4.4|9=118|35=X|34=399|49=SERVER1|52=20260227-06:28:39.894|56=CLIENT1|268=1|279=0|269=2|55=USDJPY|270=150.058071707209|271=94871|10=085|8=FIX.4.4|9=118|35=X|34=400|49=SERVER1|52=20260227-06:28:39.896|56=CLIENT1|268=1|279=0|269=2|55=GBPUSD|270=1.27081701341018|271=75418|10=032|8=FIX.4.4|9=118|35=X|34=401|49=SERVER1|52=20260227-06:28:40.003|56=CLIENT1|268=1|279=0|269=2|55=EURUSD|270=1.08413699085887|271=75045|10=053|8=FIX.4.4|9=118|35=X|34=402|49=SERVER1|52=20260227-06:28:40.005|56=CLIENT1|268=1|279=0|269=2|55=USDJPY|270=150.050278776824|271=50384|10=047|8=FIX.4.4|9=118|35=X|34=403|49=SERVER1|52=20260227-06:28:40.007|56=CLIENT1|268=1|279=0|269=2|55=GBPUSD|270=1.27085142519529|271=67665|10=033|8=FIX.4.4|9=118|35=X|34=404|49=SERVER1|52=20260227-06:28:40.113|56=CLIENT1|268=1|279=0|269=2|55=EURUSD|270=1.08410275370173|271=85489|10=043|8=FIX.4.4|9=118|35=X|34=405|49=SERVER1|52=20260227-06:28:40.114|56=CLIENT1|268=1|279=0|269=2|55=USDJPY|270=150.044516564932|271=77422|10=046|8=FIX.4.4|9=118|35=X|34=406|49=SERVER1|52=20260227-06:28:40.115|56=CLIENT1|268=1|279=0|269=2|55=GBPUSD|270=1.27086806234032|271=89011|10=016|8=FIX.4.4|9=118|35=X|34=407|49=SERVER1|52=20260227-06:28:40.219|56=CLIENT1|268=1|279=0|269=2|55=EURUSD|270=1.08414456776944|271=31134|10=052|8=FIX.4.4|9=118|35=X|34=408|49=SERVER1|52=20260227-06:28:40.221|56=CLIENT1|268=1|279=0|269=2|55=USDJPY|270=150.049215715764|271=48062|10=048|8=FIX.4.4|9=118|35=X|34=409|49=SERVER1|52=20260227-06:28:40.222|56=CLIENT1|268=1|279=0|269=2|55=GBPUSD|270=1.27093551762126|271=88024|10=026|8=FIX.4.4|9=118|35=X|34=410|49=SERVER1|52=20260227-06:28:40.326|56=CLIENT1|268=1|279=0|269=2|55=EURUSD|270=1.08406181467525|271=70609|10=043|8=FIX.4.4|9=117|35=X|34=411|49=SERVER1|52=20260227-06:28:40.328|56=CLIENT1|268=1|279=0|269=2|55=USDJPY|270=150.04118312791|271=43228|10=242|8=FIX.4.4|9=118|35=X|34=412|49=SERVER1|52=20260227-06:28:40.329|56=CLIENT1|268=1|279=0|269=2|55=GBPUSD|270=1.27097252331685|271=29435|10=033|8=FIX.4.4|9=118|35=X|34=413|49=SERVER1|52=20260227-06:28:40.445|56=CLIENT1|268=1|279=0|269=2|55=EURUSD|270=1.08411738067864|271=81043|10=048|8=FIX.4.4|9=118|35=X|34=414|49=SERVER1|52=20260227-06:28:40.446|56=CLIENT1|268=1|279=0|269=2|55=USDJPY|270=150.038536186223|271=46477|10=058|8=FIX.4.4|9=118|35=X|34=415|49=SERVER1|52=20260227-06:28:40.448|56=CLIENT1|268=1|279=0|269=2|55=GBPUSD|270=1.27091402140481|271=17800|10=014|8=FIX.4.4|9=118|35=X|34=416|49=SERVER1|52=20260227-06:28:40.549|56=CLIENT1|268=1|279=0|269=2|55=EURUSD|270=1.08417176746222|271=56726|10=060|8=FIX.4.4|9=118|35=X|34=417|49=SERVER1|52=20260227-06:28:40.550|56=CLIENT1|268=1|279=0|269=2|55=USDJPY|270=150.048105932397|271=44944|10=058|8=FIX.4.4|9=118|35=X|34=418|49=SERVER1|52=20260227-06:28:40.552|56=CLIENT1|268=1|279=0|269=2|55=GBPUSD|270=1.27092437711022|271=92663|10=027|8=FIX.4.4|9=117|35=X|34=419|49=SERVER1|52=20260227-06:28:40.664|56=CLIENT1|268=1|279=0|269=2|55=EURUSD|270=1.0841327178421|271=67775|10=009|8=FIX.4.4|9=118|35=X|34=420|49=SERVER1|52=20260227-06:28:40.665|56=CLIENT1|268=1|279=0|269=2|55=USDJPY|270=150.047795539754|271=85949|10=083|8=FIX.4.4|9=118|35=X|34=421|49=SERVER1|52=20260227-06:28:40.666|56=CLIENT1|268=1|279=0|269=2|55=GBPUSD|270=1.27090199156035|271=80374|10=033|8=FIX.4.4|9=117|35=X|34=422|49=SERVER1|52=20260227-06:28:40.768|56=CLIENT1|268=1|279=0|269=2|55=EURUSD|270=1.0840528391074|271=10892|10=255|8=FIX.4.4|9=118|35=X|34=423|49=SERVER1|52=20260227-06:28:40.769|56=CLIENT1|268=1|279=0|269=2|55=USDJPY|270=150.041762996196|271=31363|10=067|8=FIX.4.4|9=118|35=X|34=424|49=SERVER1|52=20260227-06:28:40.771|56=CLIENT1|268=1|279=0|269=2|55=GBPUSD|270=1.27090816601172|271=27687|10=034|8=FIX.4.4|9=118|35=X|34=425|49=SERVER1|52=20260227-06:28:40.877|56=CLIENT1|268=1|279=0|269=2|55=EURUSD|270=1.08411989077079|271=46478|10=080|8=FIX.4.4|9=118|35=X|34=426|49=SERVER1|52=20260227-06:28:40.879|56=CLIENT1|268=1|279=0|269=2|55=USDJPY|270=150.033859921237|271=16948|10=076|8=FIX.4.4|9=118|35=X|34=427|49=SERVER1|52=20260227-06:28:40.881|56=CLIENT1|268=1|279=0|269=2|55=GBPUSD|270=1.27086644998833|271=80599|10=067|8=FIX.4.4|9=118|35=X|34=428|49=SERVER1|52=20260227-06:28:40.998|56=CLIENT1|268=1|279=0|269=2|55=EURUSD|270=1.08407820483378|271=65954|10=079|8=FIX.4.4|9=118|35=X|34=429|49=SERVER1|52=20260227-06:28:40.999|56=CLIENT1|268=1|279=0|269=2|55=USDJPY|270=150.042283345077|271=96799|10=087|8=FIX.4.4|9=118|35=X|34=430|49=SERVER1|52=20260227-06:28:41.001|56=CLIENT1|268=1|279=0|269=2|55=GBPUSD|270=1.27085294698759|271=35631|10=037|8=FIX.4.4|9=118|35=X|34=431|49=SERVER1|52=20260227-06:28:41.110|56=CLIENT1|268=1|279=0|269=2|55=EURUSD|270=1.08399513158524|271=78229|10=050|8=FIX.4.4|9=118|35=X|34=432|49=SERVER1|52=20260227-06:28:41.111|56=CLIENT1|268=1|279=0|269=2|55=USDJPY|270=150.040936191664|271=14688|10=049|8=FIX.4.4|9=117|35=X|34=433|49=SERVER1|52=20260227-06:28:41.113|56=CLIENT1|268=1|279=0|269=2|55=GBPUSD|270=1.2708751238594|271=19878|10=246|8=FIX.4.4|9=118|35=X|34=434|49=SERVER1|52=20260227-06:28:41.216|56=CLIENT1|268=1|279=0|269=2|55=EURUSD|270=1.08408188355526|271=41311|10=042|8=FIX.4.4|9=118|35=X|34=435|49=SERVER1|52=20260227-06:28:41.217|56=CLIENT1|268=1|279=0|269=2|55=USDJPY|270=150.041475523231|271=33956|10=046|8=FIX.4.4|9=118|35=X|34=436|49=SERVER1|52=20260227-06:28:41.218|56=CLIENT1|268=1|279=0|269=2|55=GBPUSD|270=1.27093468991082|271=86973|10=055|8=FIX.4.4|9=118|35=X|34=437|49=SERVER1|52=20260227-06:28:41.324|56=CLIENT1|268=1|279=0|269=2|55=EURUSD|270=1.08416247624616|271=79207|10=054|8=FIX.4.4|9=118|35=X|34=438|49=SERVER1|52=20260227-06:28:41.326|56=CLIENT1|268=1|279=0|269=2|55=USDJPY|270=150.039395658156|271=65424|10=068|8=FIX.4.4|9=118|35=X|34=439|49=SERVER1|52=20260227-06:28:41.327|56=CLIENT1|268=1|279=0|269=2|55=GBPUSD|270=1.27100075821218|271=13351|10=015|8=FIX.4.4|9=118|35=X|34=440|49=SERVER1|52=20260227-06:28:41.431|56=CLIENT1|268=1|279=0|269=2|55=EURUSD|270=1.08419713522825|271=68106|10=043|8=FIX.4.4|9=118|35=X|34=441|49=SERVER1|52=20260227-06:28:41.432|56=CLIENT1|268=1|279=0|269=2|55=USDJPY|270=150.044402304155|271=50656|10=033|8=FIX.4.4|9=118|35=X|34=442|49=SERVER1|52=20260227-06:28:41.433|56=CLIENT1|268=1|279=0|269=2|55=GBPUSD|270=1.27102272964555|271=69998|10=048|8=FIX.4.4|9=117|35=X|34=443|49=SERVER1|52=20260227-06:28:41.547|56=CLIENT1|268=1|279=0|269=2|55=EURUSD|270=1.0842051407287|271=38423|10=251|8=FIX.4.4|9=118|35=X|34=444|49=SERVER1|52=20260227-06:28:41.549|56=CLIENT1|268=1|279=0|269=2|55=USDJPY|270=150.049856746725|271=80177|10=077|8=FIX.4.4|9=118|35=X|34=445|49=SERVER1|52=20260227-06:28:41.550|56=CLIENT1|268=1|279=0|269=2|55=GBPUSD|270=1.27102045905232|271=21280|10=008|8=FIX.4.4|9=117|35=X|34=446|49=SERVER1|52=20260227-06:28:41.664|56=CLIENT1|268=1|279=0|269=2|55=EURUSD|270=1.0841311710176|271=97046|10=252|8=FIX.4.4|9=118|35=X|34=447|49=SERVER1|52=20260227-06:28:41.666|56=CLIENT1|268=1|279=0|269=2|55=USDJPY|270=150.041424300119|271=10703|10=034|8=FIX.4.4|9=118|35=X|34=448|49=SERVER1|52=20260227-06:28:41.667|56=CLIENT1|268=1|279=0|269=2|55=GBPUSD|270=1.27100508092898|271=43499|10=053|8=FIX.4.4|9=118|35=X|34=449|49=SERVER1|52=20260227-06:28:41.781|56=CLIENT1|268=1|279=0|269=2|55=EURUSD|270=1.08404675369935|271=75063|10=072|8=FIX.4.4|9=118|35=X|34=450|49=SERVER1|52=20260227-06:28:41.782|56=CLIENT1|268=1|279=0|269=2|55=USDJPY|270=150.042048486053|271=52941|10=052|8=FIX.4.4|9=118|35=X|34=451|49=SERVER1|52=20260227-06:28:41.783|56=CLIENT1|268=1|279=0|269=2|55=GBPUSD|270=1.27099321140946|271=66859|10=049|8=FIX.4.4|9=118|35=X|34=452|49=SERVER1|52=20260227-06:28:41.885|56=CLIENT1|268=1|279=0|269=2|55=EURUSD|270=1.08397205367283|271=56512|10=063|8=FIX.4.4|9=118|35=X|34=453|49=SERVER1|52=20260227-06:28:41.886|56=CLIENT1|268=1|279=0|269=2|55=USDJPY|270=150.039405697968|271=18873|10=088|8=FIX.4.4|9=117|35=X|34=454|49=SERVER1|52=20260227-06:28:41.888|56=CLIENT1|268=1|279=0|269=2|55=GBPUSD|270=1.2709216168583|271=63876|10=006|8=FIX.4.4|9=118|35=X|34=455|49=SERVER1|52=20260227-06:28:41.999|56=CLIENT1|268=1|279=0|269=2|55=EURUSD|270=1.08387537021203|271=27662|10=062|8=FIX.4.4|9=118|35=X|34=456|49=SERVER1|52=20260227-06:28:42.000|56=CLIENT1|268=1|279=0|269=2|55=USDJPY|270=150.035755293504|271=19585|10=053|8=FIX.4.4|9=118|35=X|34=457|49=SERVER1|52=20260227-06:28:42.002|56=CLIENT1|268=1|279=0|269=2|55=GBPUSD|270=1.27088936268164|271=29580|10=043|8=FIX.4.4|9=118|35=X|34=458|49=SERVER1|52=20260227-06:28:42.112|56=CLIENT1|268=1|279=0|269=2|55=EURUSD|270=1.08382557858149|271=28464|10=068|8=FIX.4.4|9=118|35=X|34=459|49=SERVER1|52=20260227-06:28:42.114|56=CLIENT1|268=1|279=0|269=2|55=USDJPY|270=150.036110874013|271=73290|10=041|8=FIX.4.4|9=118|35=X|34=460|49=SERVER1|52=20260227-06:28:42.116|56=CLIENT1|268=1|279=0|269=2|55=GBPUSD|270=1.27090051027048|271=13167|10=012|8=FIX.4.4|9=118|35=X|34=461|49=SERVER1|52=20260227-06:28:42.228|56=CLIENT1|268=1|279=0|269=2|55=EURUSD|270=1.08389620639603|271=29082|10=057|8=FIX.4.4|9=118|35=X|34=462|49=SERVER1|52=20260227-06:28:42.231|56=CLIENT1|268=1|279=0|269=2|55=USDJPY|270=150.027657810136|271=86765|10=058|8=FIX.4.4|9=118|35=X|34=463|49=SERVER1|52=20260227-06:28:42.232|56=CLIENT1|268=1|279=0|269=2|55=GBPUSD|270=1.27099657033426|271=73605|10=035|8=FIX.4.4|9=118|35=X|34=464|49=SERVER1|52=20260227-06:28:42.335|56=CLIENT1|268=1|279=0|269=2|55=EURUSD|270=1.08390776418885|271=83918|10=078|8=FIX.4.4|9=118|35=X|34=465|49=SERVER1|52=20260227-06:28:42.337|56=CLIENT1|268=1|279=0|269=2|55=USDJPY|270=150.036030293387|271=24958|10=062|8=FIX.4.4|9=118|35=X|34=466|49=SERVER1|52=20260227-06:28:42.338|56=CLIENT1|268=1|279=0|269=2|55=GBPUSD|270=1.27102106978496|271=84410|10=040|8=FIX.4.4|9=118|35=X|34=467|49=SERVER1|52=20260227-06:28:42.447|56=CLIENT1|268=1|279=0|269=2|55=EURUSD|270=1.08391528541572|271=25339|10=064|8=FIX.4.4|9=118|35=X|34=468|49=SERVER1|52=20260227-06:28:42.448|56=CLIENT1|268=1|279=0|269=2|55=USDJPY|270=150.031186138382|271=25100|10=048|8=FIX.4.4|9=118|35=X|34=469|49=SERVER1|52=20260227-06:28:42.450|56=CLIENT1|268=1|279=0|269=2|55=GBPUSD|270=1.27092484750827|271=16659|10=051|8=FIX.4.4|9=118|35=X|34=470|49=SERVER1|52=20260227-06:28:42.564|56=CLIENT1|268=1|279=0|269=2|55=EURUSD|270=1.08395210462836|271=85724|10=059|8=FIX.4.4|9=118|35=X|34=471|49=SERVER1|52=20260227-06:28:42.566|56=CLIENT1|268=1|279=0|269=2|55=USDJPY|270=150.036949877838|271=98456|10=095|8=FIX.4.4|9=118|35=X|34=472|49=SERVER1|52=20260227-06:28:42.568|56=CLIENT1|268=1|279=0|269=2|55=GBPUSD|270=1.27090528430425|271=76110|10=029|8=FIX.4.4|9=118|35=X|34=473|49=SERVER1|52=20260227-06:28:42.681|56=CLIENT1|268=1|279=0|269=2|55=EURUSD|270=1.08396939730558|271=23893|10=079|8=FIX.4.4|9=118|35=X|34=474|49=SERVER1|52=20260227-06:28:42.682|56=CLIENT1|268=1|279=0|269=2|55=USDJPY|270=150.034576781913|271=93181|10=069|8=FIX.4.4|9=118|35=X|34=475|49=SERVER1|52=20260227-06:28:42.683|56=CLIENT1|268=1|279=0|269=2|55=GBPUSD|270=1.27092633173973|271=78230|10=046|8=FIX.4.4|9=118|35=X|34=476|49=SERVER1|52=20260227-06:28:42.797|56=CLIENT1|268=1|279=0|269=2|55=EURUSD|270=1.08404361953049|271=65711|10=066|8=FIX.4.4|9=118|35=X|34=477|49=SERVER1|52=20260227-06:28:42.798|56=CLIENT1|268=1|279=0|269=2|55=USDJPY|270=150.039253184466|271=71698|10=086|8=FIX.4.4|9=118|35=X|34=478|49=SERVER1|52=20260227-06:28:42.799|56=CLIENT1|268=1|279=0|269=2|55=GBPUSD|270=1.27088516146667|271=38676|10=072|8=FIX.4.4|9=118|35=X|34=479|49=SERVER1|52=20260227-06:28:42.914|56=CLIENT1|268=1|279=0|269=2|55=EURUSD|270=1.08405839809436|271=84918|10=081|8=FIX.4.4|9=118|35=X|34=480|49=SERVER1|52=20260227-06:28:42.915|56=CLIENT1|268=1|279=0|269=2|55=USDJPY|270=150.041202988373|271=14988|10=066|8=FIX.4.4|9=118|35=X|34=481|49=SERVER1|52=20260227-06:28:42.916|56=CLIENT1|268=1|279=0|269=2|55=GBPUSD|270=1.27098114442334|271=36930|10=033|8=FIX.4.4|9=118|35=X|34=482|49=SERVER1|52=20260227-06:28:43.031|56=CLIENT1|268=1|279=0|269=2|55=EURUSD|270=1.08404891660209|271=67526|10=052|8=FIX.4.4|9=118|35=X|34=483|49=SERVER1|52=20260227-06:28:43.032|56=CLIENT1|268=1|279=0|269=2|55=USDJPY|270=150.037689515614|271=42364|10=057|8=FIX.4.4|9=118|35=X|34=484|49=SERVER1|52=20260227-06:28:43.033|56=CLIENT1|268=1|279=0|269=2|55=GBPUSD|270=1.27099280826293|271=55471|10=043|8=FIX.4.4|9=118|35=X|34=485|49=SERVER1|52=20260227-06:28:43.147|56=CLIENT1|268=1|279=0|269=2|55=EURUSD|270=1.08413320528225|271=48190|10=047|8=FIX.4.4|9=118|35=X|34=486|49=SERVER1|52=20260227-06:28:43.148|56=CLIENT1|268=1|279=0|269=2|55=USDJPY|270=150.036276631331|271=50171|10=049|8=FIX.4.4|9=118|35=X|34=487|49=SERVER1|52=20260227-06:28:43.149|56=CLIENT1|268=1|279=0|269=2|55=GBPUSD|270=1.27108570135946|271=12199|10=045|8=FIX.4.4|9=118|35=X|34=488|49=SERVER1|52=20260227-06:28:43.263|56=CLIENT1|268=1|279=0|269=2|55=EURUSD|270=1.08409124233382|271=98644|10=062|8=FIX.4.4|9=118|35=X|34=489|49=SERVER1|52=20260227-06:28:43.266|56=CLIENT1|268=1|279=0|269=2|55=USDJPY|270=150.030876027659|271=68832|10=078|8=FIX.4.4|9=118|35=X|34=490|49=SERVER1|52=20260227-06:28:43.268|56=CLIENT1|268=1|279=0|269=2|55=GBPUSD|270=1.27117708854397|271=61331|10=044|8=FIX.4.4|9=118|35=X|34=491|49=SERVER1|52=20260227-06:28:43.380|56=CLIENT1|268=1|279=0|269=2|55=EURUSD|270=1.08414417107137|271=51210|10=033|8=FIX.4.4|9=118|35=X|34=492|49=SERVER1|52=20260227-06:28:43.381|56=CLIENT1|268=1|279=0|269=2|55=USDJPY|270=150.025685595687|271=15029|10=073|8=FIX.4.4|9=118|35=X|34=493|49=SERVER1|52=20260227-06:28:43.383|56=CLIENT1|268=1|279=0|269=2|55=GBPUSD|270=1.27117828888562|271=78340|10=057|8=FIX.4.4|9=118|35=X|34=494|49=SERVER1|52=20260227-06:28:43.497|56=CLIENT1|268=1|279=0|269=2|55=EURUSD|270=1.08419230068451|271=57612|10=060|8=FIX.4.4|9=118|35=X|34=495|49=SERVER1|52=20260227-06:28:43.498|56=CLIENT1|268=1|279=0|269=2|55=USDJPY|270=150.026375936537|271=19532|10=078|8=FIX.4.4|9=118|35=X|34=496|49=SERVER1|52=20260227-06:28:43.499|56=CLIENT1|268=1|279=0|269=2|55=GBPUSD|270=1.27121460097114|271=52518|10=039|8=FIX.4.4|9=118|35=X|34=497|49=SERVER1|52=20260227-06:28:43.604|56=CLIENT1|268=1|279=0|269=2|55=EURUSD|270=1.08415846356933|271=29094|10=070|8=FIX.4.4|9=118|35=X|34=498|49=SERVER1|52=20260227-06:28:43.605|56=CLIENT1|268=1|279=0|269=2|55=USDJPY|270=150.018346311397|271=22413|10=053|8=FIX.4.4|9=118|35=X|34=499|49=SERVER1|52=20260227-06:28:43.607|56=CLIENT1|268=1|279=0|269=2|55=GBPUSD|270=1.27126047891711|271=25751|10=043|8=FIX.4.4|9=117|35=X|34=500|49=SERVER1|52=20260227-06:28:43.710|56=CLIENT1|268=1|279=0|269=2|55=EURUSD|270=1.0840911775506|271=69446|10=253|8=FIX.4.4|9=118|35=X|34=501|49=SERVER1|52=20260227-06:28:43.711|56=CLIENT1|268=1|279=0|269=2|55=USDJPY|270=150.009621182947|271=90495|10=054|8=FIX.4.4|9=118|35=X|34=502|49=SERVER1|52=20260227-06:28:43.714|56=CLIENT1|268=1|279=0|269=2|55=GBPUSD|270=1.27126379055927|271=19419|10=040|8=FIX.4.4|9=117|35=X|34=503|49=SERVER1|52=20260227-06:28:43.819|56=CLIENT1|268=1|279=0|269=2|55=EURUSD|270=1.0840110278323|271=23823|10=241|8=FIX.4.4|9=118|35=X|34=504|49=SERVER1|52=20260227-06:28:43.821|56=CLIENT1|268=1|279=0|269=2|55=USDJPY|270=150.018690324248|271=69910|10=055|8=FIX.4.4|9=118|35=X|34=505|49=SERVER1|52=20260227-06:28:43.823|56=CLIENT1|268=1|279=0|269=2|55=GBPUSD|270=1.27126291023981|271=71176|10=030|8=FIX.4.4|9=118|35=X|34=506|49=SERVER1|52=20260227-06:28:43.929|56=CLIENT1|268=1|279=0|269=2|55=EURUSD|270=1.08391834043566|271=29015|10=059|8=FIX.4.4|9=118|35=X|34=507|49=SERVER1|52=20260227-06:28:43.931|56=CLIENT1|268=1|279=0|269=2|55=USDJPY|270=150.016880380589|271=77376|10=074|8=FIX.4.4|9=118|35=X|34=508|49=SERVER1|52=20260227-06:28:43.933|56=CLIENT1|268=1|279=0|269=2|55=GBPUSD|270=1.27118694764348|271=54039|10=051|8=FIX.4.4|9=118|35=X|34=509|49=SERVER1|52=20260227-06:28:44.038|56=CLIENT1|268=1|279=0|269=2|55=EURUSD|270=1.08384070503821|271=39325|10=048|8=FIX.4.4|9=118|35=X|34=510|49=SERVER1|52=20260227-06:28:44.040|56=CLIENT1|268=1|279=0|269=2|55=USDJPY|270=150.017809369475|271=36159|10=057|8=FIX.4.4|9=117|35=X|34=511|49=SERVER1|52=20260227-06:28:44.041|56=CLIENT1|268=1|279=0|269=2|55=GBPUSD|270=1.2711525083564|271=47358|10=228|8=FIX.4.4|9=118|35=X|34=512|49=SERVER1|52=20260227-06:28:44.147|56=CLIENT1|268=1|279=0|269=2|55=EURUSD|270=1.08377685259015|271=59069|10=067|8=FIX.4.4|9=118|35=X|34=513|49=SERVER1|52=20260227-06:28:44.149|56=CLIENT1|268=1|279=0|269=2|55=USDJPY|270=150.009202005226|271=11848|10=037|8=FIX.4.4|9=118|35=X|34=514|49=SERVER1|52=20260227-06:28:44.151|56=CLIENT1|268=1|279=0|269=2|55=GBPUSD|270=1.27123724347984|271=22142|10=024|8=FIX.4.4|9=117|35=X|34=515|49=SERVER1|52=20260227-06:28:44.259|56=CLIENT1|268=1|279=0|269=2|55=EURUSD|270=1.0838561605673|271=93936|10=018|8=FIX.4.4|9=118|35=X|34=516|49=SERVER1|52=20260227-06:28:44.260|56=CLIENT1|268=1|279=0|269=2|55=USDJPY|270=150.002472252641|271=64330|10=035|8=FIX.4.4|9=118|35=X|34=517|49=SERVER1|52=20260227-06:28:44.262|56=CLIENT1|268=1|279=0|269=2|55=GBPUSD|270=1.27132782055355|271=81520|10=027|8=FIX.4.4|9=117|35=X|34=518|49=SERVER1|52=20260227-06:28:44.372|56=CLIENT1|268=1|279=0|269=2|55=EURUSD|270=1.0838716394065|271=31811|10=003|8=FIX.4.4|9=118|35=X|34=519|49=SERVER1|52=20260227-06:28:44.373|56=CLIENT1|268=1|279=0|269=2|55=USDJPY|270=150.010513606362|271=33185|10=045|8=FIX.4.4|9=118|35=X|34=520|49=SERVER1|52=20260227-06:28:44.374|56=CLIENT1|268=1|279=0|269=2|55=GBPUSD|270=1.27137820983216|271=60641|10=030|8=FIX.4.4|9=118|35=X|34=521|49=SERVER1|52=20260227-06:28:44.478|56=CLIENT1|268=1|279=0|269=2|55=EURUSD|270=1.08384186681939|271=15776|10=079|8=FIX.4.4|9=118|35=X|34=522|49=SERVER1|52=20260227-06:28:44.479|56=CLIENT1|268=1|279=0|269=2|55=USDJPY|270=150.015860196531|271=60741|10=056|8=FIX.4.4|9=118|35=X|34=523|49=SERVER1|52=20260227-06:28:44.480|56=CLIENT1|268=1|279=0|269=2|55=GBPUSD|270=1.27134764764772|271=74369|10=051|8=FIX.4.4|9=117|35=X|34=524|49=SERVER1|52=20260227-06:28:44.584|56=CLIENT1|268=1|279=0|269=2|55=EURUSD|270=1.0838702789846|271=66717|10=028|8=FIX.4.4|9=118|35=X|34=525|49=SERVER1|52=20260227-06:28:44.585|56=CLIENT1|268=1|279=0|269=2|55=USDJPY|270=150.023712370493|271=45168|10=059|8=FIX.4.4|9=118|35=X|34=526|49=SERVER1|52=20260227-06:28:44.586|56=CLIENT1|268=1|279=0|269=2|55=GBPUSD|270=1.27141087566849|271=40385|10=053|8=FIX.4.4|9=118|35=X|34=527|49=SERVER1|52=20260227-06:28:44.693|56=CLIENT1|268=1|279=0|269=2|55=EURUSD|270=1.08390303536698|271=83309|10=070|8=FIX.4.4|9=118|35=X|34=528|49=SERVER1|52=20260227-06:28:44.694|56=CLIENT1|268=1|279=0|269=2|55=USDJPY|270=150.029493840833|271=46007|10=068|8=FIX.4.4|9=118|35=X|34=529|49=SERVER1|52=20260227-06:28:44.695|56=CLIENT1|268=1|279=0|269=2|55=GBPUSD|270=1.27131455408974|271=55507|10=051|8=FIX.4.4|9=118|35=X|34=530|49=SERVER1|52=20260227-06:28:44.797|56=CLIENT1|268=1|279=0|269=2|55=EURUSD|270=1.08393016764529|271=45127|10=065|8=FIX.4.4|9=118|35=X|34=531|49=SERVER1|52=20260227-06:28:44.798|56=CLIENT1|268=1|279=0|269=2|55=USDJPY|270=150.039492672386|271=49957|10=090|8=FIX.4.4|9=118|35=X|34=532|49=SERVER1|52=20260227-06:28:44.799|56=CLIENT1|268=1|279=0|269=2|55=GBPUSD|270=1.27122655785416|271=66524|10=052|8=FIX.4.4|9=118|35=X|34=533|49=SERVER1|52=20260227-06:28:44.904|56=CLIENT1|268=1|279=0|269=2|55=EURUSD|270=1.08401406416099|271=66807|10=055|8=FIX.4.4|9=118|35=X|34=534|49=SERVER1|52=20260227-06:28:44.906|56=CLIENT1|268=1|279=0|269=2|55=USDJPY|270=150.036594145374|271=84506|10=065|8=FIX.4.4|9=118|35=X|34=535|49=SERVER1|52=20260227-06:28:44.908|56=CLIENT1|268=1|279=0|269=2|55=GBPUSD|270=1.27131128008819|271=30175|10=030|8=FIX.4.4|9=118|35=X|34=536|49=SERVER1|52=20260227-06:28:45.010|56=CLIENT1|268=1|279=0|269=2|55=EURUSD|270=1.08404455437519|271=68051|10=047|8=FIX.4.4|9=118|35=X|34=537|49=SERVER1|52=20260227-06:28:45.012|56=CLIENT1|268=1|279=0|269=2|55=USDJPY|270=150.034957908671|271=44852|10=065|8=FIX.4.4|9=118|35=X|34=538|49=SERVER1|52=20260227-06:28:45.014|56=CLIENT1|268=1|279=0|269=2|55=GBPUSD|270=1.27123971751972|271=52367|10=041|8=FIX.4.4|9=118|35=X|34=539|49=SERVER1|52=20260227-06:28:45.130|56=CLIENT1|268=1|279=0|269=2|55=EURUSD|270=1.08407962156277|271=47900|10=058|8=FIX.4.4|9=118|35=X|34=540|49=SERVER1|52=20260227-06:28:45.131|56=CLIENT1|268=1|279=0|269=2|55=USDJPY|270=150.028639914407|271=61399|10=060|8=FIX.4.4|9=118|35=X|34=541|49=SERVER1|52=20260227-06:28:45.132|56=CLIENT1|268=1|279=0|269=2|55=GBPUSD|270=1.27122738598306|271=43333|10=029|8=FIX.4.4|9=118|35=X|34=542|49=SERVER1|52=20260227-06:28:45.238|56=CLIENT1|268=1|279=0|269=2|55=EURUSD|270=1.08414793357919|271=92392|10=072|8=FIX.4.4|9=118|35=X|34=543|49=SERVER1|52=20260227-06:28:45.239|56=CLIENT1|268=1|279=0|269=2|55=USDJPY|270=150.038282076505|271=61392|10=058|8=FIX.4.4|9=118|35=X|34=544|49=SERVER1|52=20260227-06:28:45.241|56=CLIENT1|268=1|279=0|269=2|55=GBPUSD|270=1.27116275699546|271=11779|10=049|8=FIX.4.4|9=117|35=X|34=545|49=SERVER1|52=20260227-06:28:45.346|56=CLIENT1|268=1|279=0|269=2|55=EURUSD|270=1.0841151933107|271=33879|10=004|8=FIX.4.4|9=118|35=X|34=546|49=SERVER1|52=20260227-06:28:45.348|56=CLIENT1|268=1|279=0|269=2|55=USDJPY|270=150.046773694472|271=20013|10=060|8=FIX.4.4|9=118|35=X|34=547|49=SERVER1|52=20260227-06:28:45.350|56=CLIENT1|268=1|279=0|269=2|55=GBPUSD|270=1.27112517247068|271=43621|10=027|8=FIX.4.4|9=118|35=X|34=548|49=SERVER1|52=20260227-06:28:45.458|56=CLIENT1|268=1|279=0|269=2|55=EURUSD|270=1.08403269338154|271=20743|10=059|8=FIX.4.4|9=117|35=X|34=549|49=SERVER1|52=20260227-06:28:45.460|56=CLIENT1|268=1|279=0|269=2|55=USDJPY|270=150.05199122408|271=26255|10=005|8=FIX.4.4|9=117|35=X|34=550|49=SERVER1|52=20260227-06:28:45.463|56=CLIENT1|268=1|279=0|269=2|55=GBPUSD|270=1.2710341826926|271=36009|10=233|8=FIX.4.4|9=118|35=X|34=551|49=SERVER1|52=20260227-06:28:45.566|56=CLIENT1|268=1|279=0|269=2|55=EURUSD|270=1.08399785545022|271=41269|10=070|8=FIX.4.4|9=118|35=X|34=552|49=SERVER1|52=20260227-06:28:45.568|56=CLIENT1|268=1|279=0|269=2|55=USDJPY|270=150.055203560561|271=33702|10=049|8=FIX.4.4|9=118|35=X|34=553|49=SERVER1|52=20260227-06:28:45.571|56=CLIENT1|268=1|279=0|269=2|55=GBPUSD|270=1.27103146636623|271=66461|10=033|8=FIX.4.4|9=118|35=X|34=554|49=SERVER1|52=20260227-06:28:45.678|56=CLIENT1|268=1|279=0|269=2|55=EURUSD|270=1.08390218541298|271=93818|10=077|8=FIX.4.4|9=118|35=X|34=555|49=SERVER1|52=20260227-06:28:45.680|56=CLIENT1|268=1|279=0|269=2|55=USDJPY|270=150.046094499964|271=82051|10=074|8=FIX.4.4|9=118|35=X|34=556|49=SERVER1|52=20260227-06:28:45.682|56=CLIENT1|268=1|279=0|269=2|55=GBPUSD|270=1.27108063586337|271=80470|10=044|8=FIX.4.4|9=118|35=X|34=557|49=SERVER1|52=20260227-06:28:45.793|56=CLIENT1|268=1|279=0|269=2|55=EURUSD|270=1.08389229017083|271=44497|10=077|8=FIX.4.4|9=118|35=X|34=558|49=SERVER1|52=20260227-06:28:45.795|56=CLIENT1|268=1|279=0|269=2|55=USDJPY|270=150.048440084633|271=19278|10=075|8=FIX.4.4|9=118|35=X|34=559|49=SERVER1|52=20260227-06:28:45.798|56=CLIENT1|268=1|279=0|269=2|55=GBPUSD|270=1.27108963395277|271=57705|10=070|8=FIX.4.4|9=118|35=X|34=560|49=SERVER1|52=20260227-06:28:45.905|56=CLIENT1|268=1|279=0|269=2|55=EURUSD|270=1.08384730412121|271=70114|10=035|8=FIX.4.4|9=118|35=X|34=561|49=SERVER1|52=20260227-06:28:45.908|56=CLIENT1|268=1|279=0|269=2|55=USDJPY|270=150.040056751142|271=50647|10=051|8=FIX.4.4|9=118|35=X|34=562|49=SERVER1|52=20260227-06:28:45.910|56=CLIENT1|268=1|279=0|269=2|55=GBPUSD|270=1.27103517651858|271=23116|10=029|8=FIX.4.4|9=118|35=X|34=563|49=SERVER1|52=20260227-06:28:46.014|56=CLIENT1|268=1|279=0|269=2|55=EURUSD|270=1.08382792258023|271=98750|10=061|8=FIX.4.4|9=118|35=X|34=564|49=SERVER1|52=20260227-06:28:46.017|56=CLIENT1|268=1|279=0|269=2|55=USDJPY|270=150.030656590112|271=48110|10=041|8=FIX.4.4|9=118|35=X|34=565|49=SERVER1|52=20260227-06:28:46.019|56=CLIENT1|268=1|279=0|269=2|55=GBPUSD|270=1.27106363961003|271=17837|10=034|8=FIX.4.4|9=117|35=X|34=566|49=SERVER1|52=20260227-06:28:46.126|56=CLIENT1|268=1|279=0|269=2|55=EURUSD|270=1.0838883408676|271=81969|10=033|8=FIX.4.4|9=118|35=X|34=567|49=SERVER1|52=20260227-06:28:46.127|56=CLIENT1|268=1|279=0|269=2|55=USDJPY|270=150.029511485974|271=16025|10=063|8=FIX.4.4|9=118|35=X|34=568|49=SERVER1|52=20260227-06:28:46.129|56=CLIENT1|268=1|279=0|269=2|55=GBPUSD|270=1.27115151928182|271=83716|10=044|8=FIX.4.4|9=117|35=X|34=569|49=SERVER1|52=20260227-06:28:46.242|56=CLIENT1|268=1|279=0|269=2|55=EURUSD|270=1.0838414130442|271=71546|10=254|8=FIX.4.4|9=118|35=X|34=570|49=SERVER1|52=20260227-06:28:46.245|56=CLIENT1|268=1|279=0|269=2|55=USDJPY|270=150.035186215499|271=73674|10=069|8=FIX.4.4|9=118|35=X|34=571|49=SERVER1|52=20260227-06:28:46.246|56=CLIENT1|268=1|279=0|269=2|55=GBPUSD|270=1.27121165239621|271=89683|10=042|8=FIX.4.4|9=118|35=X|34=572|49=SERVER1|52=20260227-06:28:46.353|56=CLIENT1|268=1|279=0|269=2|55=EURUSD|270=1.08392121402371|271=99285|10=055|8=FIX.4.4|9=118|35=X|34=573|49=SERVER1|52=20260227-06:28:46.356|56=CLIENT1|268=1|279=0|269=2|55=USDJPY|270=150.026030969562|271=22408|10=059|8=FIX.4.4|9=117|35=X|34=574|49=SERVER1|52=20260227-06:28:46.358|56=CLIENT1|268=1|279=0|269=2|55=GBPUSD|270=1.2711552127163|271=15653|10=237|8=FIX.4.4|9=118|35=X|34=575|49=SERVER1|52=20260227-06:28:46.462|56=CLIENT1|268=1|279=0|269=2|55=EURUSD|270=1.08389751194224|271=13763|10=066|8=FIX.4.4|9=118|35=X|34=576|49=SERVER1|52=20260227-06:28:46.464|56=CLIENT1|268=1|279=0|269=2|55=USDJPY|270=150.018169802761|271=49524|10=071|8=FIX.4.4|9=118|35=X|34=577|49=SERVER1|52=20260227-06:28:46.465|56=CLIENT1|268=1|279=0|269=2|55=GBPUSD|270=1.27105693322792|271=94570|10=052|8=FIX.4.4|9=118|35=X|34=578|49=SERVER1|52=20260227-06:28:46.580|56=CLIENT1|268=1|279=0|269=2|55=EURUSD|270=1.08386840308776|271=89832|10=085|8=FIX.4.4|9=118|35=X|34=579|49=SERVER1|52=20260227-06:28:46.583|56=CLIENT1|268=1|279=0|269=2|55=USDJPY|270=150.018539709938|271=98592|10=098|8=FIX.4.4|9=118|35=X|34=580|49=SERVER1|52=20260227-06:28:46.585|56=CLIENT1|268=1|279=0|269=2|55=GBPUSD|270=1.27114604906631|271=45675|10=043|8=FIX.4.4|9=118|35=X|34=581|49=SERVER1|52=20260227-06:28:46.693|56=CLIENT1|268=1|279=0|269=2|55=EURUSD|270=1.08384893113323|271=98948|10=080|8=FIX.4.4|9=118|35=X|34=582|49=SERVER1|52=20260227-06:28:46.695|56=CLIENT1|268=1|279=0|269=2|55=USDJPY|270=150.023876337657|271=59617|10=086|8=FIX.4.4|9=118|35=X|34=583|49=SERVER1|52=20260227-06:28:46.698|56=CLIENT1|268=1|279=0|269=2|55=GBPUSD|270=1.27110322811215|271=69615|10=037|8=FIX.4.4|9=118|35=X|34=584|49=SERVER1|52=20260227-06:28:46.804|56=CLIENT1|268=1|279=0|269=2|55=EURUSD|270=1.08379776419142|271=14451|10=066|8=FIX.4.4|9=118|35=X|34=585|49=SERVER1|52=20260227-06:28:46.806|56=CLIENT1|268=1|279=0|269=2|55=USDJPY|270=150.030159198542|271=71216|10=062|8=FIX.4.4|9=118|35=X|34=586|49=SERVER1|52=20260227-06:28:46.808|56=CLIENT1|268=1|279=0|269=2|55=GBPUSD|270=1.27110879747863|271=37973|10=069|8=FIX.4.4|9=117|35=X|34=587|49=SERVER1|52=20260227-06:28:46.916|56=CLIENT1|268=1|279=0|269=2|55=EURUSD|270=1.0837435835576|271=64238|10=028|8=FIX.4.4|9=118|35=X|34=588|49=SERVER1|52=20260227-06:28:46.919|56=CLIENT1|268=1|279=0|269=2|55=USDJPY|270=150.035169599587|271=75207|10=094|8=FIX.4.4|9=118|35=X|34=589|49=SERVER1|52=20260227-06:28:46.921|56=CLIENT1|268=1|279=0|269=2|55=GBPUSD|270=1.27118121111345|271=59661|10=034|8=FIX.4.4|9=118|35=X|34=590|49=SERVER1|52=20260227-06:28:47.028|56=CLIENT1|268=1|279=0|269=2|55=EURUSD|270=1.08376029768108|271=61949|10=073|8=FIX.4.4|9=118|35=X|34=591|49=SERVER1|52=20260227-06:28:47.031|56=CLIENT1|268=1|279=0|269=2|55=USDJPY|270=150.041208967741|271=17433|10=053|8=FIX.4.4|9=118|35=X|34=592|49=SERVER1|52=20260227-06:28:47.033|56=CLIENT1|268=1|279=0|269=2|55=GBPUSD|270=1.27122512514078|271=67375|10=033|8=FIX.4.4|9=118|35=X|34=593|49=SERVER1|52=20260227-06:28:47.145|56=CLIENT1|268=1|279=0|269=2|55=EURUSD|270=1.08385861387152|271=41908|10=069|8=FIX.4.4|9=118|35=X|34=594|49=SERVER1|52=20260227-06:28:47.146|56=CLIENT1|268=1|279=0|269=2|55=USDJPY|270=150.050634144095|271=52650|10=055|8=FIX.4.4|9=118|35=X|34=595|49=SERVER1|52=20260227-06:28:47.147|56=CLIENT1|268=1|279=0|269=2|55=GBPUSD|270=1.27124715486212|271=89789|10=060|8=FIX.4.4|9=118|35=X|34=596|49=SERVER1|52=20260227-06:28:47.257|56=CLIENT1|268=1|279=0|269=2|55=EURUSD|270=1.08384955284415|271=74123|10=072|8=FIX.4.4|9=118|35=X|34=597|49=SERVER1|52=20260227-06:28:47.258|56=CLIENT1|268=1|279=0|269=2|55=USDJPY|270=150.049145607584|271=29596|10=087|8=FIX.4.4|9=118|35=X|34=598|49=SERVER1|52=20260227-06:28:47.259|56=CLIENT1|268=1|279=0|269=2|55=GBPUSD|270=1.27117228577992|271=30573|10=061|8=FIX.4.4|9=118|35=X|34=599|49=SERVER1|52=20260227-06:28:47.361|56=CLIENT1|268=1|279=0|269=2|55=EURUSD|270=1.08392846911785|271=75350|10=079|8=FIX.4.4|9=118|35=X|34=600|49=SERVER1|52=20260227-06:28:47.362|56=CLIENT1|268=1|279=0|269=2|55=USDJPY|270=150.054803048912|271=95492|10=057|8=FIX.4.4|9=117|35=X|34=601|49=SERVER1|52=20260227-06:28:47.363|56=CLIENT1|268=1|279=0|269=2|55=GBPUSD|270=1.2711519018016|271=10882|10=223|8=FIX.4.4|9=118|35=X|34=602|49=SERVER1|52=20260227-06:28:47.472|56=CLIENT1|268=1|279=0|269=2|55=EURUSD|270=1.08399711178498|271=50236|10=067|8=FIX.4.4|9=118|35=X|34=603|49=SERVER1|52=20260227-06:28:47.474|56=CLIENT1|268=1|279=0|269=2|55=USDJPY|270=150.048921391777|271=79386|10=082|8=FIX.4.4|9=118|35=X|34=604|49=SERVER1|52=20260227-06:28:47.476|56=CLIENT1|268=1|279=0|269=2|55=GBPUSD|270=1.27106043377222|271=94637|10=038|8=FIX.4.4|9=118|35=X|34=605|49=SERVER1|52=20260227-06:28:47.579|56=CLIENT1|268=1|279=0|269=2|55=EURUSD|270=1.08391230718601|271=73391|10=059|8=FIX.4.4|9=118|35=X|34=606|49=SERVER1|52=20260227-06:28:47.581|56=CLIENT1|268=1|279=0|269=2|55=USDJPY|270=150.053511652676|271=56260|10=059|8=FIX.4.4|9=118|35=X|34=607|49=SERVER1|52=20260227-06:28:47.582|56=CLIENT1|268=1|279=0|269=2|55=GBPUSD|270=1.27113385108991|271=34215|10=037|8=FIX.4.4|9=117|35=X|34=608|49=SERVER1|52=20260227-06:28:47.690|56=CLIENT1|268=1|279=0|269=2|55=EURUSD|270=1.0839469134184|271=85604|10=018|8=FIX.4.4|9=118|35=X|34=609|49=SERVER1|52=20260227-06:28:47.693|56=CLIENT1|268=1|279=0|269=2|55=USDJPY|270=150.061844174347|271=66135|10=070|8=FIX.4.4|9=118|35=X|34=610|49=SERVER1|52=20260227-06:28:47.695|56=CLIENT1|268=1|279=0|269=2|55=GBPUSD|270=1.27108114007601|271=69056|10=027|8=FIX.4.4|9=118|35=X|34=611|49=SERVER1|52=20260227-06:28:47.800|56=CLIENT1|268=1|279=0|269=2|55=EURUSD|270=1.08402763218405|271=84668|10=053|8=FIX.4.4|9=118|35=X|34=612|49=SERVER1|52=20260227-06:28:47.803|56=CLIENT1|268=1|279=0|269=2|55=USDJPY|270=150.067182607706|271=84182|10=060|8=FIX.4.4|9=118|35=X|34=613|49=SERVER1|52=20260227-06:28:47.805|56=CLIENT1|268=1|279=0|269=2|55=GBPUSD|270=1.27111779960009|271=19710|10=036|8=FIX.4.4|9=117|35=X|34=614|49=SERVER1|52=20260227-06:28:47.912|56=CLIENT1|268=1|279=0|269=2|55=EURUSD|270=1.0839640776846|271=80280|10=015|8=FIX.4.4|9=118|35=X|34=615|49=SERVER1|52=20260227-06:28:47.914|56=CLIENT1|268=1|279=0|269=2|55=USDJPY|270=150.070427822065|271=54079|10=061|8=FIX.4.4|9=118|35=X|34=616|49=SERVER1|52=20260227-06:28:47.917|56=CLIENT1|268=1|279=0|269=2|55=GBPUSD|270=1.27105644866699|271=28192|10=061|8=FIX.4.4|9=117|35=X|34=617|49=SERVER1|52=20260227-06:28:48.029|56=CLIENT1|268=1|279=0|269=2|55=EURUSD|270=1.0839778342549|271=18918|10=028|8=FIX.4.4|9=118|35=X|34=618|49=SERVER1|52=20260227-06:28:48.031|56=CLIENT1|268=1|279=0|269=2|55=USDJPY|270=150.061311133446|271=72803|10=040|8=FIX.4.4|9=118|35=X|34=619|49=SERVER1|52=20260227-06:28:48.034|56=CLIENT1|268=1|279=0|269=2|55=GBPUSD|270=1.27108395289833|271=79525|10=056|8=FIX.4.4|9=118|35=X|34=620|49=SERVER1|52=20260227-06:28:48.142|56=CLIENT1|268=1|279=0|269=2|55=EURUSD|270=1.08394022226536|271=81041|10=037|8=FIX.4.4|9=118|35=X|34=621|49=SERVER1|52=20260227-06:28:48.143|56=CLIENT1|268=1|279=0|269=2|55=USDJPY|270=150.065818674693|271=40506|10=063|8=FIX.4.4|9=118|35=X|34=622|49=SERVER1|52=20260227-06:28:48.144|56=CLIENT1|268=1|279=0|269=2|55=GBPUSD|270=1.27102598202497|271=95779|10=051|8=FIX.4.4|9=118|35=X|34=623|49=SERVER1|52=20260227-06:28:48.246|56=CLIENT1|268=1|279=0|269=2|55=EURUSD|270=1.08386749566202|271=91573|10=070|8=FIX.4.4|9=118|35=X|34=624|49=SERVER1|52=20260227-06:28:48.248|56=CLIENT1|268=1|279=0|269=2|55=USDJPY|270=150.068397153578|271=21765|10=077|8=FIX.4.4|9=118|35=X|34=625|49=SERVER1|52=20260227-06:28:48.248|56=CLIENT1|268=1|279=0|269=2|55=GBPUSD|270=1.27110026065878|271=45177|10=041|8=FIX.4.4|9=118|35=X|34=626|49=SERVER1|52=20260227-06:28:48.361|56=CLIENT1|268=1|279=0|269=2|55=EURUSD|270=1.08377841898654|271=10573|10=074|8=FIX.4.4|9=118|35=X|34=627|49=SERVER1|52=20260227-06:28:48.364|56=CLIENT1|268=1|279=0|269=2|55=USDJPY|270=150.072304288914|271=48855|10=074|8=FIX.4.4|9=118|35=X|34=628|49=SERVER1|52=20260227-06:28:48.366|56=CLIENT1|268=1|279=0|269=2|55=GBPUSD|270=1.27119977272835|271=68897|10=076|8=FIX.4.4|9=118|35=X|34=629|49=SERVER1|52=20260227-06:28:48.479|56=CLIENT1|268=1|279=0|269=2|55=EURUSD|270=1.08377044463156|271=53709|10=075|8=FIX.4.4|9=118|35=X|34=630|49=SERVER1|52=20260227-06:28:48.481|56=CLIENT1|268=1|279=0|269=2|55=USDJPY|270=150.080193244001|271=61026|10=037|8=FIX.4.4|9=118|35=X|34=631|49=SERVER1|52=20260227-06:28:48.483|56=CLIENT1|268=1|279=0|269=2|55=GBPUSD|270=1.27118852715281|271=45100|10=030|8=FIX.4.4|9=118|35=X|34=632|49=SERVER1|52=20260227-06:28:48.598|56=CLIENT1|268=1|279=0|269=2|55=EURUSD|270=1.08385591587597|271=60932|10=089|8=FIX.4.4|9=118|35=X|34=633|49=SERVER1|52=20260227-06:28:48.599|56=CLIENT1|268=1|279=0|269=2|55=USDJPY|270=150.083011323535|271=74222|10=054|8=FIX.4.4|9=118|35=X|34=634|49=SERVER1|52=20260227-06:28:48.601|56=CLIENT1|268=1|279=0|269=2|55=GBPUSD|270=1.27121219462851|271=79048|10=036|8=FIX.4.4|9=118|35=X|34=635|49=SERVER1|52=20260227-06:28:48.712|56=CLIENT1|268=1|279=0|269=2|55=EURUSD|270=1.08389153722913|271=94243|10=063|8=FIX.4.4|9=118|35=X|34=636|49=SERVER1|52=20260227-06:28:48.714|56=CLIENT1|268=1|279=0|269=2|55=USDJPY|270=150.075506804381|271=32575|10=064|8=FIX.4.4|9=118|35=X|34=637|49=SERVER1|52=20260227-06:28:48.715|56=CLIENT1|268=1|279=0|269=2|55=GBPUSD|270=1.27117846556236|271=68183|10=055|8=FIX.4.4|9=118|35=X|34=638|49=SERVER1|52=20260227-06:28:48.827|56=CLIENT1|268=1|279=0|269=2|55=EURUSD|270=1.08395816762637|271=63570|10=082|8=FIX.4.4|9=118|35=X|34=639|49=SERVER1|52=20260227-06:28:48.829|56=CLIENT1|268=1|279=0|269=2|55=USDJPY|270=150.080992835134|271=77484|10=087|8=FIX.4.4|9=118|35=X|34=640|49=SERVER1|52=20260227-06:28:48.831|56=CLIENT1|268=1|279=0|269=2|55=GBPUSD|270=1.27124550966426|271=36584|10=044|8=FIX.4.4|9=118|35=X|34=641|49=SERVER1|52=20260227-06:28:48.938|56=CLIENT1|268=1|279=0|269=2|55=EURUSD|270=1.08403895555702|271=59704|10=073|8=FIX.4.4|9=118|35=X|34=642|49=SERVER1|52=20260227-06:28:48.940|56=CLIENT1|268=1|279=0|269=2|55=USDJPY|270=150.090575417783|271=61650|10=067|8=FIX.4.4|9=118|35=X|34=643|49=SERVER1|52=20260227-06:28:48.942|56=CLIENT1|268=1|279=0|269=2|55=GBPUSD|270=1.27120005557946|271=39738|10=048|8=FIX.4.4|9=118|35=X|34=644|49=SERVER1|52=20260227-06:28:49.048|56=CLIENT1|268=1|279=0|269=2|55=EURUSD|270=1.08406284986819|271=72693|10=083|8=FIX.4.4|9=118|35=X|34=645|49=SERVER1|52=20260227-06:28:49.050|56=CLIENT1|268=1|279=0|269=2|55=USDJPY|270=150.084447944581|271=78086|10=076|8=FIX.4.4|9=118|35=X|34=646|49=SERVER1|52=20260227-06:28:49.052|56=CLIENT1|268=1|279=0|269=2|55=GBPUSD|270=1.27118283573026|271=19602|10=034|8=FIX.4.4|9=118|35=X|34=647|49=SERVER1|52=20260227-06:28:49.163|56=CLIENT1|268=1|279=0|269=2|55=EURUSD|270=1.08402334370532|271=72527|10=051|8=FIX.4.4|9=118|35=X|34=648|49=SERVER1|52=20260227-06:28:49.164|56=CLIENT1|268=1|279=0|269=2|55=USDJPY|270=150.093902622339|271=10361|10=057|8=FIX.4.4|9=118|35=X|34=649|49=SERVER1|52=20260227-06:28:49.165|56=CLIENT1|268=1|279=0|269=2|55=GBPUSD|270=1.27111046669597|271=85403|10=053|8=FIX.4.4|9=118|35=X|34=650|49=SERVER1|52=20260227-06:28:49.279|56=CLIENT1|268=1|279=0|269=2|55=EURUSD|270=1.08407115815065|271=25529|10=060|8=FIX.4.4|9=118|35=X|34=651|49=SERVER1|52=20260227-06:28:49.280|56=CLIENT1|268=1|279=0|269=2|55=USDJPY|270=150.096920570241|271=12873|10=057|8=FIX.4.4|9=118|35=X|34=652|49=SERVER1|52=20260227-06:28:49.282|56=CLIENT1|268=1|279=0|269=2|55=GBPUSD|270=1.27108184049303|271=56718|10=040|8=FIX.4.4|9=118|35=X|34=653|49=SERVER1|52=20260227-06:28:49.394|56=CLIENT1|268=1|279=0|269=2|55=EURUSD|270=1.08398886183747|271=35335|10=086|8=FIX.4.4|9=118|35=X|34=654|49=SERVER1|52=20260227-06:28:49.396|56=CLIENT1|268=1|279=0|269=2|55=USDJPY|270=150.091528231568|271=87852|10=082|8=FIX.4.4|9=118|35=X|34=655|49=SERVER1|52=20260227-06:28:49.398|56=CLIENT1|268=1|279=0|269=2|55=GBPUSD|270=1.27107291148756|271=66212|10=051|8=FIX.4.4|9=118|35=X|34=656|49=SERVER1|52=20260227-06:28:49.512|56=CLIENT1|268=1|279=0|269=2|55=EURUSD|270=1.08400698356754|271=57881|10=076|8=FIX.4.4|9=118|35=X|34=657|49=SERVER1|52=20260227-06:28:49.515|56=CLIENT1|268=1|279=0|269=2|55=USDJPY|270=150.087996590957|271=14279|10=095|8=FIX.4.4|9=118|35=X|34=658|49=SERVER1|52=20260227-06:28:49.517|56=CLIENT1|268=1|279=0|269=2|55=GBPUSD|270=1.27104266844844|271=60322|10=043|8=FIX.4.4|9=118|35=X|34=659|49=SERVER1|52=20260227-06:28:49.628|56=CLIENT1|268=1|279=0|269=2|55=EURUSD|270=1.08395689342564|271=31681|10=084|8=FIX.4.4|9=118|35=X|34=660|49=SERVER1|52=20260227-06:28:49.630|56=CLIENT1|268=1|279=0|269=2|55=USDJPY|270=150.092297491303|271=19210|10=052|8=FIX.4.4|9=118|35=X|34=661|49=SERVER1|52=20260227-06:28:49.632|56=CLIENT1|268=1|279=0|269=2|55=GBPUSD|270=1.27114005175535|271=35335|10=027|8=FIX.4.4|9=118|35=X|34=662|49=SERVER1|52=20260227-06:28:49.741|56=CLIENT1|268=1|279=0|269=2|55=EURUSD|270=1.08400310359125|271=47623|10=046|8=FIX.4.4|9=118|35=X|34=663|49=SERVER1|52=20260227-06:28:49.744|56=CLIENT1|268=1|279=0|269=2|55=USDJPY|270=150.091031045111|271=85305|10=046|8=FIX.4.4|9=118|35=X|34=664|49=SERVER1|52=20260227-06:28:49.747|56=CLIENT1|268=1|279=0|269=2|55=GBPUSD|270=1.27106777209903|271=44546|10=055|8=FIX.4.4|9=118|35=X|34=665|49=SERVER1|52=20260227-06:28:49.861|56=CLIENT1|268=1|279=0|269=2|55=EURUSD|270=1.08396215443971|271=42954|10=075|8=FIX.4.4|9=118|35=X|34=666|49=SERVER1|52=20260227-06:28:49.863|56=CLIENT1|268=1|279=0|269=2|55=USDJPY|270=150.097166236059|271=21405|10=070|8=FIX.4.4|9=118|35=X|34=667|49=SERVER1|52=20260227-06:28:49.866|56=CLIENT1|268=1|279=0|269=2|55=GBPUSD|270=1.27106315817484|271=54063|10=052|8=FIX.4.4|9=118|35=X|34=668|49=SERVER1|52=20260227-06:28:49.977|56=CLIENT1|268=1|279=0|269=2|55=EURUSD|270=1.08403756418293|271=99824|10=092|8=FIX.4.4|9=118|35=X|34=669|49=SERVER1|52=20260227-06:28:49.979|56=CLIENT1|268=1|279=0|269=2|55=USDJPY|270=150.103055588551|271=50450|10=075|8=FIX.4.4|9=118|35=X|34=670|49=SERVER1|52=20260227-06:28:49.981|56=CLIENT1|268=1|279=0|269=2|55=GBPUSD|270=1.27115586423181|271=96339|10=053|8=FIX.4.4|9=118|35=X|34=671|49=SERVER1|52=20260227-06:28:50.090|56=CLIENT1|268=1|279=0|269=2|55=EURUSD|270=1.08400466279923|271=97567|10=066|8=FIX.4.4|9=118|35=X|34=672|49=SERVER1|52=20260227-06:28:50.092|56=CLIENT1|268=1|279=0|269=2|55=USDJPY|270=150.096839725393|271=64535|10=074|8=FIX.4.4|9=117|35=X|34=673|49=SERVER1|52=20260227-06:28:50.094|56=CLIENT1|268=1|279=0|269=2|55=GBPUSD|270=1.2712506756666|271=62780|10=248|8=FIX.4.4|9=118|35=X|34=674|49=SERVER1|52=20260227-06:28:50.201|56=CLIENT1|268=1|279=0|269=2|55=EURUSD|270=1.08403968528275|271=70704|10=054|8=FIX.4.4|9=118|35=X|34=675|49=SERVER1|52=20260227-06:28:50.203|56=CLIENT1|268=1|279=0|269=2|55=USDJPY|270=150.090855957727|271=65825|10=074|8=FIX.4.4|9=118|35=X|34=676|49=SERVER1|52=20260227-06:28:50.205|56=CLIENT1|268=1|279=0|269=2|55=GBPUSD|270=1.27131290584239|271=87702|10=036|8=FIX.4.4|9=118|35=X|34=677|49=SERVER1|52=20260227-06:28:50.313|56=CLIENT1|268=1|279=0|269=2|55=EURUSD|270=1.08411279275849|271=17548|10=068|8=FIX.4.4|9=118|35=X|34=678|49=SERVER1|52=20260227-06:28:50.316|56=CLIENT1|268=1|279=0|269=2|55=USDJPY|270=150.100351991155|271=11815|10=048|8=FIX.4.4|9=118|35=X|34=679|49=SERVER1|52=20260227-06:28:50.318|56=CLIENT1|268=1|279=0|269=2|55=GBPUSD|270=1.27128783605787|271=30811|10=048|8=FIX.4.4|9=118|35=X|34=680|49=SERVER1|52=20260227-06:28:50.424|56=CLIENT1|268=1|279=0|269=2|55=EURUSD|270=1.08409349098709|271=54847|10=071|8=FIX.4.4|9=118|35=X|34=681|49=SERVER1|52=20260227-06:28:50.426|56=CLIENT1|268=1|279=0|269=2|55=USDJPY|270=150.104935658397|271=34159|10=070|8=FIX.4.4|9=117|35=X|34=682|49=SERVER1|52=20260227-06:28:50.428|56=CLIENT1|268=1|279=0|269=2|55=GBPUSD|270=1.2712394052928|271=21341|10=232|8=FIX.4.4|9=118|35=X|34=683|49=SERVER1|52=20260227-06:28:50.546|56=CLIENT1|268=1|279=0|269=2|55=EURUSD|270=1.08415361364402|271=23701|10=041|8=FIX.4.4|9=118|35=X|34=684|49=SERVER1|52=20260227-06:28:50.548|56=CLIENT1|268=1|279=0|269=2|55=USDJPY|270=150.101895811629|271=47232|10=065|8=FIX.4.4|9=118|35=X|34=685|49=SERVER1|52=20260227-06:28:50.551|56=CLIENT1|268=1|279=0|269=2|55=GBPUSD|270=1.27120524025776|271=89574|10=043|8=FIX.4.4|9=118|35=X|34=686|49=SERVER1|52=20260227-06:28:50.657|56=CLIENT1|268=1|279=0|269=2|55=EURUSD|270=1.08407246932169|271=38251|10=067|8=FIX.4.4|9=118|35=X|34=687|49=SERVER1|52=20260227-06:28:50.659|56=CLIENT1|268=1|279=0|269=2|55=USDJPY|270=150.107572705211|271=45912|10=061|8=FIX.4.4|9=118|35=X|34=688|49=SERVER1|52=20260227-06:28:50.662|56=CLIENT1|268=1|279=0|269=2|55=GBPUSD|270=1.27111472055084|271=58369|10=044|8=FIX.4.4|9=117|35=X|34=689|49=SERVER1|52=20260227-06:28:50.768|56=CLIENT1|268=1|279=0|269=2|55=EURUSD|270=1.0841167963851|271=76237|10=028|8=FIX.4.4|9=118|35=X|34=690|49=SERVER1|52=20260227-06:28:50.771|56=CLIENT1|268=1|279=0|269=2|55=USDJPY|270=150.113466348313|271=67554|10=061|8=FIX.4.4|9=118|35=X|34=691|49=SERVER1|52=20260227-06:28:50.773|56=CLIENT1|268=1|279=0|269=2|55=GBPUSD|270=1.27114196035106|271=71760|10=030|8=FIX.4.4|9=118|35=X|34=692|49=SERVER1|52=20260227-06:28:50.880|56=CLIENT1|268=1|279=0|269=2|55=EURUSD|270=1.08419552292495|271=20325|10=059|8=FIX.4.4|9=118|35=X|34=693|49=SERVER1|52=20260227-06:28:50.882|56=CLIENT1|268=1|279=0|269=2|55=USDJPY|270=150.114587944201|271=37329|10=067|8=FIX.4.4|9=117|35=X|34=694|49=SERVER1|52=20260227-06:28:50.884|56=CLIENT1|268=1|279=0|269=2|55=GBPUSD|270=1.2710511986618|271=76925|10=004|8=FIX.4.4|9=118|35=X|34=695|49=SERVER1|52=20260227-06:28:50.993|56=CLIENT1|268=1|279=0|269=2|55=EURUSD|270=1.08411386721412|271=74815|10=063|8=FIX.4.4|9=118|35=X|34=696|49=SERVER1|52=20260227-06:28:50.995|56=CLIENT1|268=1|279=0|269=2|55=USDJPY|270=150.119023009631|271=59107|10=062|8=FIX.4.4|9=118|35=X|34=697|49=SERVER1|52=20260227-06:28:50.998|56=CLIENT1|268=1|279=0|269=2|55=GBPUSD|270=1.27114529232942|271=62419|10=053|8=FIX.4.4|9=118|35=X|34=698|49=SERVER1|52=20260227-06:28:51.112|56=CLIENT1|268=1|279=0|269=2|55=EURUSD|270=1.08402800408084|271=91071|10=041|8=FIX.4.4|9=118|35=X|34=699|49=SERVER1|52=20260227-06:28:51.114|56=CLIENT1|268=1|279=0|269=2|55=USDJPY|270=150.123725339322|271=82034|10=051|8=FIX.4.4|9=118|35=X|34=700|49=SERVER1|52=20260227-06:28:51.116|56=CLIENT1|268=1|279=0|269=2|55=GBPUSD|270=1.27110248170108|271=45773|10=014|8=FIX.4.4|9=118|35=X|34=701|49=SERVER1|52=20260227-06:28:51.227|56=CLIENT1|268=1|279=0|269=2|55=EURUSD|270=1.08410982459818|271=98630|10=062|8=FIX.4.4|9=118|35=X|34=702|49=SERVER1|52=20260227-06:28:51.229|56=CLIENT1|268=1|279=0|269=2|55=USDJPY|270=150.128038900703|271=23425|10=041|8=FIX.4.4|9=118|35=X|34=703|49=SERVER1|52=20260227-06:28:51.232|56=CLIENT1|268=1|279=0|269=2|55=GBPUSD|270=1.27104542320276|271=48993|10=026|8=FIX.4.4|9=118|35=X|34=704|49=SERVER1|52=20260227-06:28:51.343|56=CLIENT1|268=1|279=0|269=2|55=EURUSD|270=1.08410394954149|271=16242|10=047|8=FIX.4.4|9=118|35=X|34=705|49=SERVER1|52=20260227-06:28:51.345|56=CLIENT1|268=1|279=0|269=2|55=USDJPY|270=150.119829509437|271=34218|10=062|8=FIX.4.4|9=117|35=X|34=706|49=SERVER1|52=20260227-06:28:51.348|56=CLIENT1|268=1|279=0|269=2|55=GBPUSD|270=1.2710952268962|271=96125|10=248|8=FIX.4.4|9=118|35=X|34=707|49=SERVER1|52=20260227-06:28:51.459|56=CLIENT1|268=1|279=0|269=2|55=EURUSD|270=1.08402811864079|271=68213|10=060|8=FIX.4.4|9=118|35=X|34=708|49=SERVER1|52=20260227-06:28:51.461|56=CLIENT1|268=1|279=0|269=2|55=USDJPY|270=150.115984420969|271=84001|10=059|8=FIX.4.4|9=118|35=X|34=709|49=SERVER1|52=20260227-06:28:51.463|56=CLIENT1|268=1|279=0|269=2|55=GBPUSD|270=1.27108963397492|271=52802|10=047|8=FIX.4.4|9=118|35=X|34=710|49=SERVER1|52=20260227-06:28:51.578|56=CLIENT1|268=1|279=0|269=2|55=EURUSD|270=1