8=FIX.4.4|9=69|35=A|34=1|49=CLIENT1|52=20260227-06:28:24.896|56=SERVER1|98=0|108=30|10=015|8=FIX.4.4|9=129|35=V|34=2|49=CLIENT1|52=20260227-06:28:24.898|56=SERVER1|146=1|55=EURUSD|262=MD_EURUSD|263=1|264=1|265=1|267=3|269=0|269=1|269=2|10=198|8=FIX.4.4|9=129|35=V|34=3|49=CLIENT1|52=20260227-06:28:24.899|56=SERVER1|146=1|55=GBPUSD|262=MD_GBPUSD|263=1|264=1|265=1|267=3|269=0|269=1|269=2|10=162|8=FIX.4.4|9=129|35=V|34=4|49=CLIENT1|52=20260227-06:28:24.900|56=SERVER1|146=1|55=USDJPY|262=MD_USDJPY|263=1|264=1|265=1|267=3|269=0|269=1|269=2|10=198|8=FIX.4.4|9=57|35=0|34=5|49=CLIENT1|52=20260227-06:28:54.037|56=SERVER1|10=220|8=FIX.4.4|9=57|35=0|34=6|49=CLIENT1|52=20260227-06:29:24.109|56=SERVER1|10=219|8=FIX.4.4|9=57|35=0|34=7|49=CLIENT1|52=20260227-06:29:54.075|56=SERVER1|10=225|8=FIX.4.4|9=57|35=0|34=8|49=CLIENT1|52=20260227-06:30:24.057|56=SERVER1|10=215|8=FIX.4.4|9=57|35=0|34=9|49=CLIENT1|52=20260227-06:30:54.034|56=SERVER1|10=214|8=FIX.4.4|9=58|35=0|34=10|49=CLIENT1|52=20260227-06:31:24.050|56=SERVER1|10=251|8=FIX.4.4|9=58|35=0|34=11|49=CLIENT1|52=20260227-06:31:54.059|56=SERVER1|10=008|8=FIX.4.4|9=58|35=0|34=12|49=CLIENT1|52=20260227-06:32:24.030|56=SERVER1|10=252|8=FIX.4.4|9=58|35=0|34=13|49=CLIENT1|52=20260227-06:32:54.025|56=SERVER1|10=004|8=FIX.4.4|9=58|35=0|34=14|49=CLIENT1|52=20260227-06:33:24.005|56=SERVER1|10=001|8=FIX.4.4|9=58|35=0|34=15|49=CLIENT1|52=20260227-06:33:54.064|56=SERVER1|10=010|8=FIX.4.4|9=58|35=0|34=16|49=CLIENT1|52=20260227-06:34:24.071|56=SERVER1|10=007|8=FIX.4.4|9=58|35=0|34=17|49=CLIENT1|52=20260227-06:34:54.013|56=SERVER1|10=007|8=FIX.4.4|9=58|35=0|34=18|49=CLIENT1|52=20260227-06:35:24.040|56=SERVER1|10=006|8=FIX.4.4|9=58|35=0|34=19|49=CLIENT1|52=20260227-06:35:54.011|56=SERVER1|10=008|8=FIX.4.4|9=58|35=0|34=20|49=CLIENT1|52=20260227-06:36:24.093|56=SERVER1|10=008|8=FIX.4.4|9=58|35=0|34=21|49=CLIENT1|52=20260227-06:36:54.056|56=SERVER1|10=011|